:020000040800F2
:100000000000022085220008AD060008AF060008A7
:10001000B1060008B3060008B5060008000000009D
:10002000000000000000000000000000B70600080B
:10003000B906000800000000BB060008BD06000865
:10004000D5220008D5220008D5220008D5220008B4
:10005000D5220008D5220008D5220008D5220008A4
:10006000D5220008D5220008D5220008D522000894
:10007000D5220008D5220008D5220008D522000884
:10008000D5220008D5220008D5220008D522000874
:10009000D5220008D5220008D5220008D522000864
:1000A000D5220008D5220008D5220008D522000854
:1000B000D5220008D5220008D5220008D522000844
:1000C000D5220008D5220008D5220008D522000834
:1000D000D5220008D5220008D5220008D522000824
:1000E000D5220008D5220008D5220008D522000814
:1000F000D5220008D5220008D5220008D522000804
:10010000D5220008D5220008D5220008D5220008F3
:10011000D5220008D5220008C5060008D52200080F
:10012000D5220008D5220008D5220008D5220008D3
:10013000D5220008D5220008D5220008D5220008C3
:10014000D5220008D5220008D5220008D5220008B3
:10015000D5220008D5220008D5220008D5220008A3
:10016000D5220008D5220008D5220008D522000893
:10017000D5220008D5220008D52200080000000082
:08018000D5220008D522000879
:1001900010F8012B11F8013B012A28BF9A42F7D031
:1001A000D01A7047034613F8012B002AFBD1181A06
:1001B000013870470000000000000000000000004F
:1001C00001F0FF01102A2BDB10F0070F08D010F808
:1001D000013B013A8B422DD010F0070F42B3F6D10C
:1001E000F0B441EA012141EA014122F007047FF025
:1001F00000070023F0E80256083C85EA010586EA7C
:10020000010685FA47F5A3FA87F586FA47F6A5FAB7
:1002100087F68EB9EED1F0BC01F0FF0102F00702C3
:1002200032B110F8013B013A83EA010313B1F8D16E
:100230000020704701387047002D06BF354603384F
:10024000073815F0010F07D1013015F4807F02BF88
:10025000013015F4C03F0130F0BC0138704700BFD9
:1002600053B94AB9002908BF00281CBF4FF0FF311D
:100270004FF0FF3000F00CB8ADF1080C6DE904CE82
:1002800003F090F9DDF804E0DDE9022304B07047E3
:10029000704700BF0348044B834202D0034B03B1B5
:1002A000184770475C0000205C0000200000000040
:1002B0000548064B1B1AD90F01EBA301491002D0C8
:1002C000034B03B1184770475C0000205C0000201E
:1002D0000000000010B5064C237843B9FFF7DAFFA1
:1002E000044B13B10448AFF300800123237010BD09
:1002F0005C000020000000009C38000808B5054B99
:100300001BB105490548AFF30080BDE80840FFF781
:10031000CFBF00BF00000000600000209C38000834
:1003200010B582B004461349FFF732FFD0B112492D
:100330002046FFF72DFFC0B110492046FFF728FFE8
:10034000A8B101AA0E49204601F0E8FF012801D01A
:10035000002008E0019B5A1E0B2AF9D8094A1370A5
:10036000042000E0012002B010BD0220FBE70320C2
:10037000F9E700BFC0380008C8380008743A000820
:10038000D03800080000002010B58EB0FFF7C8FF7D
:10039000042846D8DFE800F0420312212F00224B48
:1003A0001B78012B06D0204B01221A701F4801F048
:1003B000BDFE36E01E4801F0B9FE32E01A4B1B7854
:1003C000022B06D0184B02221A701A4801F0AEFE1A
:1003D00027E0194801F0AAFE23E0134B1B7833B144
:1003E000114B00221A70154801F0A0FE19E01448C4
:1003F00001F09CFE15E00C4B1B78022B03D011483A
:1004000001F094FE0DE001AC0F4B1A780F49204625
:1004100001F062FF204601F089FE02E00C4801F085
:1004200085FE0EB010BD00BF7C000020D43800084F
:100430001439000828390008683900087C39000898
:1004400094390008C839000800000020AC390008C1
:10045000F839000800B589B02021684601F0B6FEE1
:10046000002802DA09B05DF804FB6846FFF78CFF4C
:10047000F8E7000010B500F033FE244B1B68C31AE8
:10048000632B19D9214B1860214B1B78012B14D0F9
:10049000022B24D083B91F4C00224FF40041204688
:1004A00000F050FD00224FF48051204600F04AFD3C
:1004B000194B1B684B225A6310BD164C01224FF496
:1004C0000041204600F03EFD00224FF480512046BE
:1004D00000F038FD104B1B6832225A63ECE70D4CDC
:1004E00001224FF48051204600F02CFD00224FF4F1
:1004F0000041204600F026FD084B1B7803EB8303E8
:100500005B003233044A12685363D5E77800002059
:100510007C000020000C0240CC00002000000020E5
:1005200072B6FEE710B594B008AC30220021204628
:1005300001F022FF0023039304930593069307938E
:100540000193184A116C41F080511164126C02F051
:1005500080520192019A0293134A116841F480413A
:100560001160126802F480420292029A02220892FA
:1005700001220B9210220C920E93204600F0C6F836
:1005800060B90F230393002104910591069107910F
:1005900003A800F00BFB18B914B010BDFFF7C0FFA3
:1005A000FFF7BEFF003802400070004008B500F0C1
:1005B00071FDFFF7B7FF00F01FF800F0B5FD00F088
:1005C0003DFE01F023FB01F03BFB094C00212046DE
:1005D00001F02CFA236800225A63064801F0A6FDB8
:1005E000FFF738FFFFF746FF0A2000F07FFDF7E72F
:1005F000CC000020443A00082DE9F04188B003AD5A
:100600000024039404940594069407940094244BC6
:100610001A6B42F001021A631A6B02F00102009297
:10062000009A01941A6B42F008021A631A6B02F0E6
:1006300008020192019A02941A6B42F004021A63B2
:100640001B6B03F004030293029B164F22464FF4E8
:100650007041384600F076FC4FF00108CDF80C8070
:10066000049402230593104E2946304600F074FB93
:100670004FF470430393CDF81080059406942946F7
:10068000384600F069FB4FF400730393049405941B
:100690002946304600F060FB08B0BDE8F08100BF9D
:1006A00000380240000C024000000240FEE7FEE776
:1006B000FEE7FEE7FEE770477047704708B500F0B9
:1006C00003FD08BD08B5024800F0FBFE08BD00BFF1
:1006D0008400002082B0002100910B4B5A6C42F440
:1006E00080425A645A6C02F480420092009A01914E
:1006F0001A6C42F080521A641B6C03F08053019311
:10070000019B02B0704700BF00380240002800F093
:10071000E08170B582B00446036813F0010F3BD04E
:100720009F4B9B6803F00C03042B2CD09C4B9B68C5
:1007300003F00C03082B21D06368B3F5803F4FD042
:10074000B3F5A02F52D0964B1A6822F480321A606B
:100750001A6822F480221A606368002B50D000F0DF
:10076000BFFC05468E4B1B6813F4003F14D100F00C
:10077000B7FC401B6428F5D90320B1E1884B5B68C6
:1007800013F4800FD8D0864B1B6813F4003F03D0BE
:100790006368002B00F09F81236813F0020F54D090
:1007A0007F4B9B6813F00C0F3ED07D4B9B6803F092
:1007B0000C03082B33D0E368002B68D0794B01225F
:1007C0001A6000F08DFC0546754B1B6813F0020F94
:1007D00054D100F085FC401B0228F5D903207FE1AD
:1007E0006F4A136843F480331360B5E76C4B1A68A3
:1007F00042F480221A601A6842F480321A60ABE731
:1008000000F06EFC0546664B1B6813F4003FC3D036
:1008100000F066FC401B6428F5D9032060E1604BC2
:100820005B6813F4800FC6D15D4B1B6813F0020F99
:1008300003D0E368012B40F05081594A136823F03C
:10084000F803216943EAC1031360236813F0080F1A
:1008500042D063696BB3534B0122C3F8802E00F082
:100860003FFC05464E4B5B6F13F0020F34D100F096
:1008700037FC401B0228F5D9032031E1484A1368B0
:1008800023F0F803216943EAC1031360DDE7454B18
:1008900000221A6000F024FC0546414B1B6813F04F
:1008A000020FD2D000F01CFC401B0228F5D9032017
:1008B00016E13C4B0022C3F8802E00F011FC0546E7
:1008C000374B5B6F13F0020F06D000F009FC401BA2
:1008D0000228F5D9032003E1236813F0040F77D031
:1008E0002F4B1B6C13F0805F33D1002301932C4BF3
:1008F0001A6C42F080521A641B6C03F0805301930F
:10090000019B0125284B1B6813F4807F23D0A3682B
:10091000012B34D0052B38D0214B1A6F22F0010265
:100920001A671A6F22F004021A67A368002B3DD0E1
:1009300000F0D6FB06461A4B1B6F13F0020F46D190
:1009400000F0CEFB801B41F288339842F3D903209C
:10095000C6E00025D6E7144A136843F48073136099
:1009600000F0BEFB0646104B1B6813F4807FCED10F
:1009700000F0B6FB801B0228F5D90320B0E0084A3E
:10098000136F43F001031367CFE7054B1A6F42F073
:1009900004021A671A6F42F001021A67C5E700BF26
:1009A00000380240000047420070004000F098FB11
:1009B0000646524B1B6F13F0020F08D000F090FB5D
:1009C000801B41F288339842F3D9032088E0EDB9C7
:1009D000A369002B00F08380484A926802F00C0261
:1009E000082A51D0022B17D0454B00221A6600F07E
:1009F00077FB0446414B1B6813F0007F42D000F0A8
:100A00006FFB001B0228F5D9032069E03B4A136CF9
:100A100023F080531364DBE7394B00221A6600F0A1
:100A20005FFB0546354B1B6813F0007F06D000F0D6
:100A300057FB401B0228F5D9032051E0E369226AE5
:100A40001343626A43EA8213A26A5208013A43EAF4
:100A50000243E26A43EA0263284A5360284B0122B8
:100A60001A6600F03DFB0446244B1B6813F0007F20
:100A700006D100F035FB001B0228F5D903202FE03A
:100A800000202DE000202BE0012B2BD01B4B5B68BE
:100A900003F48001E269914226D103F03F02216A0A
:100AA0008A4223D1616A47F6C0721A40B2EB811FB5
:100AB0001ED103F44031A26A5208013AB1EB024F51
:100AC00018D103F07063E26AB3EB026F14D1002017
:100AD00006E001207047012002E0012000E0002034
:100AE00002B070BD0120FBE70120F9E70120F7E724
:100AF0000120F5E70120F3E70120F1E7003802408B
:100B00000000474208B5264B9B6803F00C03042BFA
:100B100041D0082B41D1224B5A6802F03F025B685A
:100B200013F4800F12D01E4B5968C1F388111D4871
:100B30000023A1FB0001FFF793FB194B5B68C3F394
:100B4000014301335B00B0FBF3F008BD144B586860
:100B5000C0F388104FEA401CBCEB000C6EEB0E0E8D
:100B60004FEA8E1343EA9C634FEA8C11B1EB0C0100
:100B700063EB0E03DB0043EA5173C90011EB000C79
:100B800043F10003990200234FEA8C2041EA9C5173
:100B9000FFF766FBD1E70348D7E70348D5E700BF77
:100BA0000038024040787D010024F400002800F065
:100BB0009B8070B50D4604464F4B1B6803F007033E
:100BC0008B4208D2CBB24C4A1370136803F0070370
:100BD0008B4240F08B80236813F0020F17D013F084
:100BE000040F04D0454A936843F4E05393602368AC
:100BF00013F0080F04D0414A936843F460439360B4
:100C00003E4A936823F0F003A1680B439360236886
:100C100013F0010F32D06368012B21D09A1E012AF4
:100C200025D9364A126812F0020F61D033498A681A
:100C300022F0030213438B6000F052FA06462F4B5A
:100C40009B6803F00C036268B3EB820F16D000F0D0
:100C500047FA801B41F288339842F0D9032042E0E2
:100C6000264A126812F4003FE0D101203BE0234AFB
:100C7000126812F0007FD9D1012034E01E4B1B68AE
:100C800003F00703AB4207D9EAB21B4B1A701B688B
:100C900003F00703AB422DD1236813F0040F06D0F5
:100CA000164A936823F4E053E1680B43936023688A
:100CB00013F0080F07D0114A936823F460432169A9
:100CC00043EAC1039360FFF71DFF0C4B9B68C3F31E
:100CD00003130B4AD35CD8400A4B18600A4B1868C0
:100CE00000F0B2F9002070BD012070470120FAE742
:100CF0000120F8E70120F6E7003C024000380240FE
:100D0000D43A00080800002004000020014B1868B5
:100D1000704700BF0800002008B5FFF7F7FF044B3D
:100D20009B68C3F38223034AD35CD84008BD00BF4D
:100D300000380240CC3A000808B5FFF7E7FF044B43
:100D40009B68C3F34233034AD35CD84008BD00BF5D
:100D500000380240CC3A000800230F2B00F2E98053
:100D600070B582B065E085684FEA430E032404FA4B
:100D70000EF425EA0405CC6804FA0EF42C438460D2
:100D8000446824EA02044A68C2F300129A402243EB
:100D900042605CE0DC08083450F8242003F00705CA
:100DA000AD004FF00F0E0EFA05FE22EA0E0E0A6994
:100DB000AA4042EA0E0240F824205CE0072200E04C
:100DC000002202FA0EF22A4302345A4D45F824203A
:100DD000594A94686FEA0C0224EA0C054E6816F42E
:100DE000801F01D04CEA0405534CA560E46802EA78
:100DF00004054E6816F4001F01D04CEA04054E4C61
:100E0000E560646802EA04054E6816F4003F01D00C
:100E10004CEA0405484C6560246822404D6815F48E
:100E2000803F01D04CEA0402434C226001330F2B77
:100E30007DD801229A400C6804EA020C32EA0404CC
:100E4000F4D14C6804F00304013C012C8BD94A68AE
:100E500002F00302032A09D0C4685D000322AA40FD
:100E600024EA02048A68AA402243C2604A6802F067
:100E70000302022A8ED004684FEA430E032202FACC
:100E80000EF224EA02044A6802F0030202FA0EF2A9
:100E9000224302604A6812F4403FC7D00022019208
:100EA000264A546C44F480445464526C02F48042E8
:100EB0000192019A9C08A51C1E4A52F8255003F085
:100EC000030E4FEA8E0E0F2202FA0EF225EA0205F9
:100ED0001B4A90423FF474AF02F5806290421AD0F0
:100EE00002F58062904218D002F58062904216D0DE
:100EF00002F58062904214D002F58062904212D0D6
:100F000002F58062904210D002F5806290423FF478
:100F100055AF082255E7012253E7022251E7032289
:100F20004FE704224DE705224BE7062249E702B0CE
:100F300070BD704700380140003C0140003802405D
:100F4000000002400AB18161704709048161704765
:100F5000002807DB00F01F02400901239340024AEA
:100F600042F82030704700BF00E100E0002808DBB5
:100F70000901C9B200F1604000F5614080F800133A
:100F8000704700F00F000901C9B2014B19547047B6
:100F900014ED00E000B500F00700C0F1070CBCF153
:100FA000040F28BF4FF0040C031D062B0FD9C31EDE
:100FB0004FF0FF3E0EFA0CF021EA000199400EFAC4
:100FC00003FE22EA0E0241EA02005DF804FB002360
:100FD000EEE70000074AD36823F4E0631B041B0C10
:100FE000000200F4E060034343F0BF6343F40033C6
:100FF000D360704700ED00E010B50446054BD8689B
:10100000C0F30220FFF7C6FF01462046FFF7AEFF00
:1010100010BD00BF00ED00E008B5FFF799FF08BD67
:101020000138B0F1807F0BD24FF0E0235861054AC0
:10103000F02182F823100020986107221A6170477E
:101040000120704700ED00E010B504460E4B1A7801
:101050004FF47A73B3FBF2F30C4A1068B0FBF3F071
:10106000FFF7DEFF68B90F2C01D901200AE000224A
:1010700021464FF0FF30FFF7BFFF054B1C600020FB
:1010800000E0012010BD00BF01000020080000208A
:101090000400002008B50B4B1A6842F400721A6075
:1010A0001A6842F480621A601A6842F480721A6008
:1010B0000320FFF78FFF0F20FFF7C6FFFFF70AFBA4
:1010C000002008BD003C0240034A1168034B1B7816
:1010D0000B441360704700BF800000200100002017
:1010E000014B1868704700BF8000002038B50446E7
:1010F000FFF7F6FF0546B4F1FF3F02D0044B1B7823
:101100001C44FFF7EDFF401BA042FAD338BD00BFDF
:1011100001000020034AD2F8883043F47003C2F87B
:101120008830704700ED00E000B583B000230093E5
:1011300001930F480F4A026040F2E7124260836059
:101140004FF6FF72C260836100F0D6FA50B90023F7
:10115000009301936946064800F0E6FC28B903B005
:101160005DF804FBFFF7DCF9F1E7FFF7D9F9F6E7E3
:10117000840000200010004000B583B00368154AC9
:10118000934205D0144A93420FD003B05DF804FB9C
:1011900000230093114B5A6C42F001025A645B6CBD
:1011A00003F001030093009BEFE7002101910B4B3B
:1011B0001A6C42F010021A641B6C03F010030193C6
:1011C000019B0A463620FFF717FF3620FFF724FF62
:1011D000DBE700BF00000140001000400038024083
:1011E00000B587B000230193029303930493059302
:1011F00002680F4B9A4202D007B05DF804FB00234F
:1012000000930C4B1A6B42F001021A631B6B03F044
:1012100001030093009B4FF4807301930223029318
:101220000123059301A90448FFF796FDE4E700BFF9
:1012300000000140003802400000024010B596B0A6
:1012400000241294139414941594109411940994F6
:101250000A940B940C940D940E940F942022214622
:1012600001A801F089F82E482E4B03603C2343600F
:1012700084604FF6FF73C36004614461846100F0D1
:101280003BFA00283AD14FF48053129312A9244814
:1012900000F03DFB002834D1214800F059FA002825
:1012A00032D100231093119310A91D4800F03CFC8B
:1012B00000282CD16023099340F6D6030A9300221C
:1012C0000B920C920D920E920F9209A9144800F005
:1012D000A3FAF8B9002301930293039304930593AF
:1012E0004FF400520692089301A90D4800F062FCE9
:1012F00098B90B48FFF774FF16B010BDFFF710F94F
:10130000C1E7FFF70DF9C7E7FFF70AF9C9E7FFF7EC
:1013100007F9CFE7FFF704F9DCE7FFF701F9E8E7A2
:10132000CC0000200000014030B4036A026A22F0C1
:10133000010202624268846924F0730C0C6844EA7A
:101340000C0423F0020C8B6843EA0C03114DA842F5
:1013500003D005F58065A84205D123F00803CD68C8
:101360002B4323F004030B4DA84203D005F5806501
:10137000A84207D122F440724D6945EA020C8A69FD
:1013800042EA0C02426084614A684263036230BCF4
:10139000704700BF0000014030B4036A026A22F4C3
:1013A000807202624268C46924F0730C0C6844EADB
:1013B0000C0523F400738C6843EA0423114CA0420B
:1013C00003D004F58064A04206D123F40063CC6806
:1013D00043EA042323F480630A4CA04203D004F5BB
:1013E0008064A04207D122F440524C6942EA0412C0
:1013F0008C6942EA04124260C5614A68C2630362B2
:1014000030BC70470000014030B4036A026A22F425
:10141000805202624468C26922F4E6420D6842EAE0
:10142000052223F400538D6843EA0533094DA84291
:1014300003D005F58065A84204D124F480444D69A9
:1014400044EA85144460C2614A680264036230BCA5
:10145000704700BF0000014010B4036A046A24F022
:1014600001040462846924F0F00C4CEA021223F0B7
:101470000A030B43826103625DF8044B704710B4AA
:10148000036A046A24F010040462846924F4704C32
:101490004CEA023223F0A00343EA011382610362A3
:1014A0005DF8044B7047836823F070030B4343F0EF
:1014B00007038360704770477047704770477047F5
:1014C000704770B504460368DE681D6915F0020FA9
:1014D00010D016F0020F0DD06FF002021A61012336
:1014E000037703689B6913F0030F5ED0FFF7E6FFF5
:1014F0000023237715F0040F12D016F0040F0FD03D
:1015000023686FF004021A610223237723689B6922
:1015100013F4407F4FD02046FFF7D0FF00232377FE
:1015200015F0080F12D016F0080F0FD023686FF0D7
:1015300008021A61042323772368DB6913F0030F81
:1015400040D02046FFF7BAFF0023237715F0100F95
:1015500012D016F0100F0FD023686FF010021A612E
:10156000082323772368DB6913F4407F31D02046BA
:10157000FFF7A4FF0023237715F0010F02D016F028
:10158000010F2DD115F0800F02D016F0800F2FD152
:1015900015F0400F02D016F0400F31D115F0200F9A
:1015A00002D016F0200F33D170BDFFF786FF204622
:1015B000FFF785FF9CE72046FFF77FFF2046FFF7F8
:1015C0007EFFABE72046FFF778FF2046FFF777FF67
:1015D000BAE72046FFF771FF2046FFF770FFC9E723
:1015E00023686FF001021A612046FFF765FFC9E723
:1015F00023686FF080021A61204600F005FBC7E700
:1016000023686FF040021A612046FFF759FFC5E7D3
:1016100023686FF020021A61204600F0F4FAC3E755
:101620000368344A904212D0B0F1804F0FD0A2F537
:101630007C4290420BD002F58062904207D002F5C6
:101640008062904203D002F57842904203D123F0A9
:1016500070034A681343274A90422AD0B0F1804F62
:1016600027D0A2F57C42904223D002F580629042BE
:101670001FD002F5806290421BD002F57842904262
:1016800017D002F57052904213D002F5806290425A
:101690000FD002F5806290420BD0A2F598329042B2
:1016A00007D002F58062904203D002F5806290423A
:1016B00003D123F44073CA68134323F080034A69BB
:1016C000134303608B68C3620B688362094B9842C3
:1016D00003D003F58063984201D10B6903630123B2
:1016E0004361036913F0010F03D0036923F0010381
:1016F000036170470000014040B310B5044690F804
:101700003D30F3B1022384F83D30214651F8040BFB
:10171000FFF786FF012384F8463084F83E3084F8D2
:101720003F3084F8403084F8413084F8423084F807
:10173000433084F8443084F8453084F83D3000204C
:1017400010BD80F83C30FFF717FDDBE70120704744
:1017500040B310B5044690F83D30F3B1022384F84D
:101760003D30214651F8040BFFF75AFF012384F85E
:10177000463084F83E3084F83F3084F8403084F8B6
:10178000413084F8423084F8433084F8443084F89F
:10179000453084F83D30002010BD80F83C30FFF724
:1017A0008AFEDBE70120704730B4036A026A22F048
:1017B000100202624468826922F4E6420D6842EA3D
:1017C000052223F020038D6843EA0513114DA8423A
:1017D00003D005F58065A84206D123F08003CD68CB
:1017E00043EA051323F040030A4DA84203D005F550
:1017F0008065A84207D124F440644D6944EA850419
:101800008D6944EA8504446082614A6882630362A8
:1018100030BC70470000014038B590F83C30012BD7
:1018200066D004460D46012380F83C300C2A5AD875
:10183000DFE802F0075959591B595959305959597C
:1018400044000068FFF770FD2268936943F00803C5
:1018500093612268936923F004039361226893697A
:1018600029690B43936100203EE00068FFF79CFF6D
:101870002268936943F4006393612268936923F4B7
:101880008063936122689369296943EA0123936124
:10189000002029E00068FFF77FFD2268D36943F04C
:1018A0000803D3612268D36923F00403D36122685B
:1018B000D36929690B43D361002015E00068FFF765
:1018C000A3FD2268D36943F40063D3612268D3691E
:1018D00023F48063D3612268D369296943EA012331
:1018E000D361002000E00120002384F83C3038BDA3
:1018F0000220FCE710B4846824F47F4C42EA0322FF
:101900000A4342EA0C0282605DF8044B704790F88B
:101910003C30012B78D010B50446012380F83C30D0
:10192000022380F83D300268936823F47F4323F05C
:10193000770393600B68602B4CD023D8402B54D096
:1019400011D8202B03D00AD80BB1102B05D1194682
:101950002068FFF7A8FD002028E0012026E0302BBA
:10196000F5D0012022E0502B0AD1CA6849680068EE
:10197000FFF772FD50212068FFF795FD002015E06C
:10198000012013E0B3F5805F3AD0B3F5005F14D0C7
:10199000702B37D1CB684A6889680068FFF7AAFFC7
:1019A0002268936843F0770393600020012384F852
:1019B0003D30002384F83C3010BDCB684A6889680C
:1019C0000068FFF797FF2268936843F480439360B1
:1019D0000020EBE7CA6849680068FFF750FD602106
:1019E0002068FFF760FD0020E0E7CA6849680068EA
:1019F000FFF732FD40212068FFF755FD0020D5E7B5
:101A00000020D3E70120D1E70220704701F01F0139
:101A10004FF0010C0CFA01FC036A23EA0C03036289
:101A2000036A8A40134303627047000010B50446FE
:101A30000846002941D194F83E30013B18BF0123EC
:101A4000002B6BD100284ED1022384F83E300122B6
:101A500001462068FFF7DAFF2368324A934203D039
:101A600002F58062934203D15A6C42F400425A64F8
:101A700023682C4A934246D0B3F1804F43D0A2F55D
:101A80007C4293423FD002F5806293423BD002F504
:101A90008062934237D002F57842934233D002F508
:101AA000705293422FD0A2F5943293422BD01A68F1
:101AB00042F001021A6000202FE0042907D0082913
:101AC0000BD094F84130013B18BF0123B8E794F8DC
:101AD0003F30013B18BF0123B2E794F84030013B8F
:101AE00018BF0123ACE7042805D0082807D002233B
:101AF00084F84130ABE7022384F83F30A7E70223A4
:101B000084F84030A3E79A6802F00702062A07D05B
:101B10001A6842F001021A60002010BD0120FCE7A3
:101B20000020FAE70000014090F83C20012A3DD057
:101B300010B40346012280F83C20022280F83D20A8
:101B400002685068946820F0700C086840EA0C0045
:101B500050601A68164882421AD0B2F1804F17D0EE
:101B6000A0F57C40824213D000F5806082420FD005
:101B700000F5806082420BD000F57840824207D0A9
:101B800000F57050824203D0A0F59430824204D117
:101B900024F08004496821439160012283F83D20AC
:101BA000002083F83C005DF8044B7047022070472A
:101BB00000000140024690F83C30012B21D0012367
:101BC00080F83C30CB6823F440738868034323F4E7
:101BD00080634868034323F400630868034323F4E5
:101BE00080530869034323F400534869034323F4F3
:101BF0008043C9690B4311684B64002082F83C00A4
:101C000070470220704770477047000008B50A48C7
:101C10000A4B03604FF4E133436000238360C360E9
:101C200003610C2242618361C36100F080F900B955
:101C300008BDFEF775FCFBE75C010020004C00408E
:101C400008B50A480A4B03604FF4E13343600023B0
:101C50008360C36003610C2242618361C36100F051
:101C600066F900B908BDFEF75BFCFBE71401002034
:101C70000044004000B58BB0002305930693079302
:101C8000089309930368284A934205D0274A934250
:101C900026D00BB05DF804FB00210191244B1A6C97
:101CA00042F400221A641A6C02F400220192019A92
:101CB00002911A6B42F004021A631B6B03F00403D7
:101CC0000293029B4FF44063059302230693032380
:101CD00008930823099305A91648FFF73DF8D8E7AC
:101CE00000210391124B1A6C42F400321A641A6CF0
:101CF00002F400320392039A04911A6B42F001023B
:101D00001A631B6B03F001030493049B0C230593DC
:101D100002230693032308930723099305A9064882
:101D2000FFF71AF8B5E700BF004C00400044004040
:101D3000003802400008024000000240026802F140
:101D40000C0353E8003F23F490730C3242E8003157
:101D50000029F3D1026802F1140353E8003F23F095
:101D60000103143242E800310029F3D1036B012B47
:101D700005D0202380F842300023036370470268B7
:101D800002F10C0353E8003F23F010030C3242E849
:101D900000310029F3D1ECE710B50446026813695D
:101DA00023F44053C1680B431361836802691A43EB
:101DB00043691A43C3691A430168CB6823F4164385
:101DC00023F00C031343CB600268536923F4407380
:101DD00081690B4353610368314A934206D002F58F
:101DE0008062934202D0FEF797FF01E0FEF7A4FF66
:101DF000E369B3F5004F29D00021031849411B18AE
:101E000041F10001C90041EA5371DB001818636811
:101E10004FEA83024FEA937341F10001FEF720FA83
:101E2000204AA2FB00314909642303FB11031B0173
:101E30003233A2FB03235B0903F0F00202EB011231
:101E400003F00F03216813448B6010BD00230218B8
:101E500043EB0301121841F10001C90041EA52713C
:101E6000D200101841F10001626892185B41FEF740
:101E7000F7F90C4AA2FB00314909642303FB110363
:101E8000DB003233A2FB03235B095A0002F4F87231
:101E900002EB011203F00703216813448B60D4E7BF
:101EA000001001401F85EB512DE9F04383B005463A
:101EB0000E4617469946DDF828802B681C6836EADE
:101EC00004040CBF01240024BC4228D1B8F1FF3F18
:101ED000F3D0FFF705F9A0EB0900404523D8B8F18E
:101EE000000F22D02B68DA6812F0040FE5D0802EA4
:101EF000E3D0402EE1D01A6812F0080FDDD00024A4
:101F000001941A6801925B680193019B2846FFF7D0
:101F100015FF08236B6485F84040012000E0002095
:101F200003B0BDE8F0830320FAE70320F8E760B3CD
:101F300010B5044690F8413013B3242384F841309F
:101F40002268D36823F40053D3602046FFF724FFB0
:101F50002268136923F4904313612268536923F0C4
:101F60002A0353612268D36843F40053D3600020EE
:101F70006064202384F8413084F84230606310BDEF
:101F800080F84030FFF776FED7E7012070472DE953
:101F9000F04182B01E4690F84130202B56D10446C5
:101FA0000D469046002955D00AB901204FE0002384
:101FB0004364212380F84130FFF792F80746A4F8E4
:101FC0002480A4F82680A368B3F5805F02D04FF088
:101FD000000814E023692BB34FF000080FE0202322
:101FE00084F84130032032E038F8023B2268C3F322
:101FF00008035360E28C92B2013A92B2E284E38C1D
:102000009BB293B100963B46002280212046FFF709
:102010004BFF0028E3D1002DE6D015F8012B2368F3
:102020005A60E7E7A8460025E9E700963B4600220C
:1020300040212046FFF738FF18B9202384F84130AB
:1020400005E0202384F84130032000E0022002B0A4
:10205000BDE8F0810120FAE72DE9F04182B01E468B
:1020600090F84230202B5AD104460D469046002964
:1020700059D00AB9012053E000234364222280F89A
:1020800042200363FFF72CF80746A4F82C80A4F83D
:102090002E80A368B3F5805F02D04FF000081AE0ED
:1020A0002369002B33D04FF0000814E0202384F87C
:1020B0004230032034E023685B68C3F3080328F848
:1020C000023B03E023685B682B700135E28D92B21E
:1020D000013A92B2E285E38D9BB2DBB100963B46BA
:1020E000002220212046FFF7DFFE0028DED1002D50
:1020F000E1D0A368B3F5805FE4D013B92369002B66
:10210000E0D023685B6803F07F032B70DDE7A8460F
:102110000025E0E7202384F84230002000E0022080
:1021200002B0BDE8F0810120FAE7000070B5054675
:10213000FEF738F8FC281ED80446214E4FF4807272
:102140000021304600F018F930463C2300F8013BEE
:102150002246294600F03EF9631C3E22F254A31C9D
:102160000022F2541A464FF47A7392B2314615485F
:10217000FFF70DFF70BD124DAC463C230CF8013B40
:10218000114C0FCCC5F80100CCF80410CCF8082095
:10219000CCF80C302068CCF81000A288A379ACF8F9
:1021A00014208CF816303E232B7600236B764FF4E8
:1021B0007A73192229460348FFF7E9FEDAE700BFE0
:1021C000A4010020140100207C3A0008F0B583B07F
:1021D00007460E460025ADF804500A46294600F091
:1021E000CBF82C4619E084BB0124002515E074B31C
:1021F00000237B550A2302221E491F48FFF7C7FE12
:10220000284603B0F0BD642312221C491A48FFF788
:10221000BEFE0024254600E014BB40F6B833012280
:102220000DF107011448FFF717FF0028F4D19DF8BE
:1022300007308DF804300A23012201A90E48FFF768
:10224000A6FE9DF807303C2BCDD03E2BCFD0002CE6
:10225000E3D0721E2946AA42D5D901357B54DCE76A
:1022600064231D2206490448FFF791FE00242546F9
:10227000D3E700BF943A000814010020983A000800
:10228000AC3A0008DFF834D0FEF744FF0C480D49A3
:102290000D4A002302E0D458C4500433C4188C42C1
:1022A000F9D30A4A0A4C002301E013600432A24227
:1022B000FBD300F069F8FEF779F9704700000220BF
:1022C000000000205C000020443C00085C0000206E
:1022D000F0030020FEE700000EB410B59DB01FAB68
:1022E000029006906FF000410A48079104910A4954
:1022F00053F8042B0591002402A9006801931B9454
:1023000000F020F9029B1C701DB0BDE8104003B026
:10231000704700BF0C0000200802FFFF0EB470B52C
:102320009DB021AC00254FF4017254F8046BADF858
:1023300014201B9502900690FDF734FF0B4B039081
:1023400007900B480B934FF6FF73ADF816303246EB
:10235000234602A900680F951495019400F048FAED
:102360001DB0BDE8704003B0704700BF7523000882
:102370000C0000200020704702440346934200D125
:10238000704703F8011BF9E770B50D4B0D4D5B1B52
:102390009C100026A64209D101F080FA0A4D0B4B91
:1023A0005B1B9C100026A64205D170BD55F8043B6E
:1023B00098470136EEE755F8043B98470136F2E7B7
:1023C0003C3C00083C3C00083C3C0008403C000809
:1023D000704770470A44914200F1FF3300D17047C3
:1023E00010B511F8014B03F8014F9142F9D110BD1E
:1023F00038B50546002941D051F8043C0C1F002B8C
:10240000B8BFE41800F028FF1D4A136833B96360B1
:1024100014602846BDE8384000F024BFA34208D924
:10242000206821188B4201BF19685B680918216078
:10243000EDE71A465B680BB1A342FAD91168501850
:10244000A0420BD120680144501883421160E0D1B2
:1024500018685B68536008441060DAE702D90C23FF
:102460002B60D6E7206821188B4204BF19685B688F
:10247000636004BF091821605460CAE738BD00BF1B
:10248000E80300202DE9F0478E681F46BE428246D1
:102490000C469046334653D8B1F90C0010F4906FB7
:1024A0002BD065692368096905EB4505A3EB010994
:1024B00005EBD5757B1C6D104B44AB422A4684BF9F
:1024C0001D462A46430527D51146504600F030FBED
:1024D000064658B321694A46FFF77CFFA38923F4D7
:1024E000906343F08003A381266165614E44A5EBB0
:1024F00009052660A5603E463B461F4620683A46D1
:10250000414601F009F8A3689B1BA36023683B4484
:1025100023600020BDE8F087504600F0E3FE064649
:102520000028E1D121695046FFF762FF0C23CAF869
:102530000030A38943F04003A3814FF0FF30E9E767
:102540003E46DBE72DE9F04F98468B891B069DB090
:1025500007460D46144610D50B6973B9402100F0AB
:10256000E7FA2860286130B90C233B604FF0FF3058
:102570001DB0BDE8F08F40236B6100230993202339
:102580008DF82930CDF80C803023DFF89C818DF850
:102590002A304FF0010923469A4613F8012B0AB15D
:1025A000252AF9D1BAEB040B0BD05B46224629460B
:1025B0003846FFF767FF013000F0A780099A5A44B8
:1025C00009929AF80030002B00F09F8000234FF012
:1025D000FF32CDE905230AF1010A049307938DF830
:1025E00053301A935446052214F8011B4E48FDF748
:1025F000E7FD049AD8B9D00644BF20238DF85330A4
:10260000110744BF2B238DF853309AF800302A2B42
:1026100015D0079A544600204FF00A0C214611F8B5
:10262000013B303B092B4BD9B0B1079214E0A0EB32
:10263000080309FA03F313430493A246D2E7039B6A
:10264000191D1B680391002BBBBF5B4242F00202C5
:1026500007930793B8BF049223782E2B0AD163788F
:102660002A2B32D1039B1A1D1B68039243EAE373A2
:1026700002340593DFF8C0A0217803225046FDF70D
:102680009FFD38B1049BA0EB0A0040228240134317
:102690000134049314F8011B24488DF828100622F5
:1026A000FDF78EFD002836D0214B1BBB039B073363
:1026B00023F0070308330393099B334409936AE724
:1026C0000CFB02320C460120A8E7002301340593DD
:1026D00019464FF00A0C204610F8012B303A092A0F
:1026E00003D9002BC6D00591C4E70CFB0121044699
:1026F0000123F0E703AB00932A460E4B04A93846AA
:10270000AFF30080421C0646D6D1AB895B063FF58D
:102710002DAF09982CE703AB00932A46054B04A97B
:10272000384600F0F3FAEDE7E43A0008EE3A000824
:102730000000000085240008EA3A000838B54B1C68
:10274000144603D14FF0FF35284638BD938923F056
:1027500020039381636B5268CDB28BB1A36B93421C
:1027600008DD23685A1E226003F8015C63680133A8
:102770006360E9E7214600F07BFD0028F1D0E1E746
:102780002169236851B1994208D213F8011CA9426A
:1027900004D1013B013223606260D5E7C4E90F3206
:1027A00004F1440363630323A363234603F8465FF2
:1027B00023600123DCE710B50C46496B69B104F1D5
:1027C0004403994201D0FFF713FE236C636000209D
:1027D000606313B1E36B236010BD236923600023A2
:1027E0006360A38943F02003A3814FF0FF30F3E738
:1027F0002DE9F04FADF5237D41AC0D460021C4E934
:10280000031101A96161AF49C4F87C11DFF8C4B2BA
:10281000AD49C4F880110746E846009392F800904D
:10282000B9F1000F00F060811BF8093013F00803C4
:1028300002F101061BD06B68002B10DD2B681A78A3
:102840001BF80220120701D43246E7E72269013261
:1028500022616A680133013A6A602B60EBE7D4F8C1
:1028600080312946384698470028E7D0ECE7B9F18F
:10287000250F40F084802360A36053782A2B02BF89
:102880001023961C23600A22B2461AF8011BA1F1FC
:102890003003092B1DD98D4B03221846FDF790FC00
:1028A00038B18A4B2268C01A012383401343236046
:1028B000564616F8013B782B06D8572B10D8252BF7
:1028C0005DD057D8002B76D00323A3610A23636021
:1028D00089E0A36802FB03113039A1605646D3E7B3
:1028E000A3F15802202AEFD801A151F822F000BF2D
:1028F000C5290008C9280008C9280008212A00089D
:10290000C9280008C9280008C9280008C9280008E3
:10291000C9280008C9280008C9280008372A000863
:102920001D2A00087B2900087B2900087B29000854
:10293000C9280008D7290008C9280008C9280008A4
:10294000C9280008C9280008472A0008DF2900080C
:10295000BD290008C9280008C9280008432A000822
:10296000C92800081D2A0008C9280008C92800082D
:10297000C5290008453B022BA6D8052332E06B6829
:10298000002B0DDD2B681A784A4540F0AD800133ED
:102990006A682B602369013A01336A60236153E757
:1029A000D4F880312946384698470028EAD0E068B4
:1029B000002840F091804FF0FF3091E0226842F013
:1029C00020022260226842F40072226010226E2BE4
:1029D000626006D801E000236360032302E008235D
:1029E00063600423A3616B68002B3CDD23685906F8
:1029F00005D42B681A781BF8022012073BD4A36970
:102A0000022B4BDC43462A462146384600F09EFA0C
:102A1000012869D002287FF417AFC8E70A22D6E759
:102A2000314601A800F0DEFB236843F04003236039
:102A300006460123D6E7236843F0400323600023C2
:102A4000D0E70223CEE72068C3063FF5FDAED8F8F5
:102A500000302269191DC8F800101B68C0074CBF60
:102A60001A801A60F0E6D4F8803129463846984733
:102A70000028BBD09BE72269013222616A68013AD3
:102A8000002A6A6002DD01332B60B2E7D4F880319E
:102A90002946384698470028ABD088E7042B06DC47
:102AA00043462A462146384600F0AAFAB0E7084BCA
:102AB000002B3FF4C9AE43462A4621463846AFF3C1
:102AC0000080A5E73D270008B7270008EA3A00087C
:102AD00000000000333B0008AB895B063FF56BAF9D
:102AE0000DF5237DBDE8F08FE068F9E770B50F4E76
:102AF0000C463168054611B900F028FD30602146CA
:102B0000284600F023FD431C03D14FF0FF3420463C
:102B100070BDC41C24F00304A042F8D0211A28463A
:102B200000F014FD0130F2D1EFE700BFE403002014
:102B30002DE9F843CD1C25F0030508350C2D38BFD1
:102B40000C25002D064601DBA94204D90C23336075
:102B50000020BDE8F883DFF8D48000F07DFBD8F8D2
:102B600000301C4644BB29463046FFF7BFFF431CDC
:102B7000044658D1D8F800402746002F43D1002CF6
:102B80004BD023683946304604EB030900F0DEFCE5
:102B9000814542D121686D1A29463046FFF7A6FFCC
:102BA00001303AD023682B442360D8F800305A68AB
:102BB00062BBC8F800700FE02268521B20D40B2AB9
:102BC00017D96119A342256018BF5960636808BF0F
:102BD000C8F8001062514B60304600F043FB04F12E
:102BE0000B00231D20F00700C21A1CBF1B1AA350A4
:102BF000AFE76268A3420CBFC8F800205A60EBE759
:102C000023466468AEE73C467F68B6E71A465B68D1
:102C1000A342FBD100235360DEE70C233360304630
:102C200000F020FB94E70560D6E700BFE803002032
:102C30002DE9F047164698468A680B69DDF8209022
:102C40009342B8BF1346336091F8432007460C46C1
:102C50000AB1013333602368990642BF33680233F7
:102C60003360256815F0060506D104F1190AE368FA
:102C700032689B1AAB4226DC94F843302268003B52
:102C800018BF012392062BD404F143024146384673
:102C9000C84701301ED02368226903F00603042BC5
:102CA00002BFE5683368ED1AA3680CBF25EAE57535
:102CB00000259342C4BF9B1AED1800261A34B54272
:102CC0001AD1002008E00123524641463846C84741
:102CD000013003D14FF0FF30BDE8F0870135C6E782
:102CE000E1185A1C302081F84300224494F8451022
:102CF00082F843100233C7E7012322464146384693
:102D0000C8470130E6D00136D9E700002DE9FF477A
:102D10000F7E0C9E782F914680460C469A4601F114
:102D2000430207D8622F0AD8002F00F0D280582F14
:102D300000F0B78004F1420684F842703AE0A7F14F
:102D40006303152BF6D801A151F823F0A52D000837
:102D5000B92D0008352D0008352D0008352D000847
:102D6000352D0008B92D0008352D0008352D000837
:102D7000352D0008352D0008B92E0008E32D000878
:102D80006F2E0008352D0008352D0008DB2E0008B9
:102D9000352D0008E32D0008352D0008352D0008DD
:102DA000772E000833681A1D1B68326004F1420652
:102DB00084F8423001239DE033682068191D31609A
:102DC000060601D51D6803E04506FBD5B3F90050A2
:102DD000002D03DA2D236D4284F8433059480A232D
:102DE00010E021683368080653F8045B02D44906F2
:102DF00048BFADB26F2F5348336059D1082300212B
:102E000084F843106668A660002E05DB21682E4317
:102E100021F0040121604DD01646B5FBF3F103FB10
:102E20001157C75D06F8017D2F46BB420D46F4D908
:102E3000082B0BD12368DF0708D523696168994205
:102E4000DEBF302306F8013C06F1FF36921B2261FB
:102E5000CDF800A04B4603AA21464046FFF7E8FE06
:102E600001304CD14FF0FF3004B0BDE8F08723684B
:102E700043F0200323603448782784F845702368A2
:102E800031681F0651F8045B02D45F0648BFADB23B
:102E90003160D90744BF43F0200323601DB11023E4
:102EA000ADE72848E9E7236823F020032360F6E72D
:102EB0000A23A4E71646BBE7336825686169181D35
:102EC00030602E061B6801D5196002E06806FBD54C
:102ED0001980002323611646BAE733681A1D326051
:102EE0001E68626800213046FDF76AF908B1801B50
:102EF000606063682361002384F84330A8E7236996
:102F0000324649464046D0470130ABD023689B0744
:102F100013D4E068039B9842B8BF1846A4E7012386
:102F2000324649464046D04701309BD00135E368E0
:102F300003995B1AAB42F2DCEBE7002504F11906BA
:102F4000F5E700BFF53A0008063B00082DE9F84315
:102F500015468A6880460C4632B98A69002A14BF31
:102F60004FF0FF3201228A602268DFF89090D1068C
:102F70005FBF1A68111D196016680027A06988B123
:102F8000012807D12B681A7863699B5C53B9002F1D
:102F900031D022E0022820D12B681B7819F80330A9
:102FA0001B071AD42368DA065EBF2B681B7806F865
:102FB000013B2A686B6801322A60A268013B013A32
:102FC0006B600137A26042B1002BD7DCD4F88031AE
:102FD0002946404698470028D0D0236813F01003B4
:102FE00005D1E2680132E260A26902B1337023695F
:102FF0003B4423610020BDE8F88300BF333B000859
:103000002DE9F04F9846734B0C468246164693E8DE
:10301000070087B003AB83E807006F4BA1696F4AD5
:10302000032908BF1A46A36801925A1EB2F5AE7F63
:1030300088BF6FF4AE75274682BF03EB050940F2E7
:103040005D13A36057F81C3B43F4506398BF4FF0E7
:10305000000923603D464FF0000B316803AB09784F
:1030600053F82B000222FDF7ABF828B3BBF1010F98
:1030700058D162682AB92268082142F4007261605E
:103080002260226822F4A0622260A268511EA16020
:1030900092B13268511C3160127805F8012B7268C8
:1030A000013A002A726007DCD4F88021314650468C
:1030B0009047002840F083800BF1010BBBF1030F18
:1030C000CBD1616809B90A216160454B6069591A21
:1030D00000F088F84FF0000BA3682268002B3DD069
:1030E0003168606991F800C010F80C00002835D0F4
:1030F000BCF1300F24D1100522D50BF1010BB9F131
:10310000000F03D0013309F1FF39A3607368013B5D
:10311000002B73601BDD336801333360A368013B10
:10312000A360D9E7BBF1020FAFD1226802F4C061FE
:10313000B1F5007FC5D11021616042F48072A3E730
:1031400022F4106222600B7805F8013BDEE7D4F828
:1031500080313146504698470028DFD02368DB0590
:103160000DD5BD4209D915F8011CD4F87C31324681
:103170005046984705F1FF394D46BD4227D0226899
:1031800012F0100212D12A706368019E394650462F
:10319000B047D8F8003021681A1DC8F800208E0604
:1031A0001B680FD51860E3680133E3602369ED1BEA
:1031B0005D442B442361002007B0BDE8F08F4FF041
:1031C000000BCBE7CA074CBF18801860EBE7012063
:1031D000F2E700BFB43800083534000815350008A0
:1031E000273B000870B50B7804465E2B0BBF4B786D
:1031F0004A1C8A1C002108BF0121013804F1FF0587
:1032000000F8011FA842FBD10BB9501E70BD81F020
:103210000101E1541046024612F8015B2D2D05D044
:103220005D2D16D0002DF1D02B46F2E746785D2EAD
:10323000FAD0B342F8DC02301A4601329642A15469
:10324000FBDCF21A013AB342A8BF00220133134457
:10325000E1E71046DAE700000148FFF7B9B800BF20
:10326000DC0300200148FFF7B4B800BFDC030020F6
:103270002DE9F0410C46496B04F1440399421DD1FC
:103280004FF48061FFF754FC18B94FF0FF30BDE8F0
:10329000F0814FF48063A36394F84630606380F854
:1032A000FF3394F8453080F8FE3394F8443080F8CA
:1032B000FD3300F2FD3020600020E8E7A66B7700C8
:1032C0003A4600F00FF805460028DED000EB06086D
:1032D000014632464046FFF77DF8C4E90D57C4F871
:1032E0000080E9E72DE9F041074614460D4621B973
:1032F000BDE8F0411146FFF71BBC2AB9FFF778F88B
:1033000025462846BDE8F08100F036F9844206469D
:1033100002D8B4EB500FF4D821463846FFF708FC2A
:10332000804608B94546ECE7B4422246294628BF04
:103330003246FFF74FF829463846FFF759F8F1E7CC
:10334000242B2DE9F0478646904601D8012B06D163
:1033500000F00CF9162303600020BDE8F087344824
:103360000D462A4615F8014B065D16F00806F8D101
:103370002D2C10D12C780126951C33F0100215D17C
:10338000302C0DD12A7802F0DF02582A08D16C784F
:10339000023510230AE02B2C04BF2C78951CECE797
:1033A000002BF6D1302C14BF0A23082306F1004C61
:1033B0000CF1FF3C0022BCFBF3F9104603FB19CAD9
:1033C000A4F13007092F0FD83C46A3421BDD571C40
:1033D00007D0814514D301D1A24511DB00FB034086
:1033E000012215F8014BEBE7A4F14107192F01D891
:1033F000373CEAE7A4F16107192F04D8573CE4E70A
:103400004FF0FF32EDE7531C08D12223CEF80030F5
:103410006046B8F1000FA0D0691E06E006B1404238
:10342000B8F1000F99D0002AF6D1C8F8001094E73F
:10343000333B0008FFF784BF2DE9F043344E864646
:103440000D46284615F8014B375D17F00807F8D1EF
:103450002D2C10D12C780127851C33F0100015D1AC
:10346000302C0DD1287800F0DF00582808D16C7876
:10347000023510230AE02B2C04BF2C78851CECE7C6
:10348000002BF6D1302C14BF0A2308234FF0FF384D
:103490000026B8FBF3F803FB08F96FEA0909304688
:1034A000A4F1300CBCF1090F10D86446A3421EDD14
:1034B000B6F1FF3F07D0804516D301D1A14513DBFC
:1034C00000FB0340012615F8014BE9E7A4F1410C8C
:1034D000BCF1190F01D8373CE8E7A4F1610CBCF14D
:1034E000190F04D8573CE1E74FF0FF36EBE7731CA8
:1034F00006D12223CEF80030304632B9BDE8F08341
:1035000007B14042002AF9D006B1691E1160F5E703
:10351000333B0008FFF790BF884210B501EB02046F
:1035200002D98442234607D8431EA14207D011F88E
:10353000012B03F8012FF8E70244824200D110BDAD
:1035400013F8011D02F8011DF7E7000038B5064D1C
:103550000023044608462B6000F016F8431C02D1F5
:103560002B6803B1236038BDE0030020014B1868CD
:10357000704700BF0C00002051F8043C181F002BBE
:10358000BCBF0B58C0187047044A05491368002B8C
:1035900008BF0B461844106018467047EC03002023
:1035A000F00300202DE9F047089D0F4604468C46A5
:1035B000002B48D18A42164661D9B2FA82F34BB148
:1035C000C3F1200201FA03FC20FA02F29E4042EA13
:1035D0000C0C9C404FEA164EB7B2BCFBFEF1220C1D
:1035E0000EFB11CC42EA0C4201FB07F0904209D9D4
:1035F000B21801F1FF3C80F0EE80904240F2EB8087
:1036000002393244121AA4B2B2FBFEF00EFB1022B1
:1036100044EA024400FB07F7A74209D9341900F134
:10362000FF3280F0DA80A74240F2D780344402387B
:1036300040EA0140E41B00211DB1DC400023C5E944
:103640000043BDE8F0878B4206D90DB1C5E9000102
:1036500000210846BDE8F087B3FA83F1002948D17C
:10366000BB4202D3824200F20781841A67EB030255
:1036700001209446002DE4D0C5E9004CE1E7002A82
:1036800000F09280B2FA82F3002B40F0A8808A1AF0
:103690004FEA164E1FFA86FC0121200CB2FBFEF702
:1036A0000EFB172240EA02420CFB07F0904207D9BA
:1036B000B21807F1FF3802D2904200F2E28047468A
:1036C000121AA4B2B2FBFEF00EFB102244EA02442E
:1036D0000CFB00FCA44507D9341900F1FF3202D2DB
:1036E000A44500F2CB801046A4EB0C0440EA07404E
:1036F000A2E7C1F120068B4022FA06FC4CEA030C3B
:1037000007FA01F420FA06F3F7404FEA1C49234375
:1037100000FA01F81FFA8CFEB7FBF9F01C0C09FB4C
:10372000107744EA074400FB0EF7A74202FA01F2C1
:103730000AD91CEB040400F1FF3A80F09B80A742F9
:1037400040F2988002386444E41B9FB2B4FBF9F362
:1037500009FB134447EA044403FB0EFEA64509D9BE
:103760001CEB040403F1FF3780F08280A6457FD96B
:10377000023B644443EA0040A4EB0E04A0FB02E7D2
:10378000BC427346B94663D360D05DB1B8EB030267
:1037900064EB090404FA06F622FA01F31E43CC4056
:1037A000C5E9006400214CE76208480842EAC1719B
:1037B0000B0C43EA00438AB242EA0342B3FBF6F140
:1037C000E407B4463746B6461F23B0FBF6F0D21BDB
:1037D00041EA004161E7614614E7104628E7C3F17A
:1037E000200120FA01F29E4027FA01F19F403A435E
:1037F0004FEA164E1FFA86FCB1FBFEF70EFB1710C0
:10380000110C41EA004107FB0CF8884504FA03F467
:103810003AD9711807F1FF3001D288451FD8A1EBC2
:103820000801B1FBFEF808FB0CF70EFB181192B271
:1038300042EA0142BA422FD2B21808F1FF31C6D291
:10384000BA42C4D2A8F102013244C0E7F0459CD28A
:10385000BEEB020367EB0C070138B94695E7A6EB10
:1038600008084144B81EB1FBFEF808FB0CF7DCE782
:103870003B467FE7504667E70846FBE6344402389C
:1038800032E7023F32441BE7A1EB08013846B1FBA7
:10389000FEF808FB0CF7C8E7414698E7F8B500BF0B
:1038A000F8BC08BC9E467047F8B500BFF8BC08BC21
:0438B0009E46704779
:1038B400293B00082C3B00082F3B00086D6F646512
:1038C400310000006D6F6465320000002564000063
:1038D4004D6F646520312061637469766174656439
:1038E4003A204C454420626C7565202B2073657228
:1038F400766F20666F6C6C6F777320756C74726171
:10390400736F6E69632073656E736F7200000000DD
:10391400416C726561647920696E204D6F64652025
:10392400310000004D6F6465203220616374697654
:10393400617465643A204C454420677265656E2065
:103944002B20736572766F20666F6C6C6F777320B3
:1039540073657269616C20696E7075742028312DED
:1039640031322900416C726561647920696E204DA1
:103974006F6465203200000052657475726E656470
:1039840020746F2069646C65207374617465000031
:10399400416C726561647920696E2069646C65208C
:1039A4007374617465000000536572766F20706FE4
:1039B400736974696F6E2073657420746F20256455
:1039C400000000004572726F723A2043616E206FEE
:1039D4006E6C792073657420736572766F20706FD6
:1039E400736974696F6E20696E204D6F646520324F
:1039F40000000000556E6B6E6F776E20636F6D6D07
:103A0400616E642E20417661696C61626C653A2056
:103A14006D6F6465312C206D6F6465322C20717577
:103A240069742C206F722076616C75652028312DA5
:103A340031322920696E204D6F6465203200000008
:103A440053797374656D2072656164792E204176B3
:103A540061696C61626C6520636F6D6D616E647326
:103A64003A206D6F6465312C206D6F6465322C20B3
:103A740071756974000000004572726F723A204DCE
:103A840065737361676520746F6F206C6F6E670078
:103A94000D0A00000D0A427566666572206F766530
:103AA40072666C6F770D0A000D0A54696D656F7547
:103AB400742070656E64616E74206C61207361693A
:103AC4007369650D0A000000000000000102030490
:103AD40000000000000000000102030406070809BA
:103AE400232D302B2000686C4C00656667454647E3
:103AF4000030313233343536373839414243444566
:103B040046003031323334353637383961626364D4
:103B1400656600412D46612D6638393031323334C3
:103B24003536375D002B2D003030007858000020EA
:103B34002020202020202020282828282820202059
:103B44002020202020202020202020202020208809
:103B5400101010101010101010101010101010046D
:103B640004040404040404040410101010101010BD
:103B740041414141414101010101010101010101B1
:103B840001010101010101010101101010101010C7
:103B94004242424242420202020202020202020281
:103BA400020202020202020202021010101020009D
:103BB4000000000000000000000000000000000001
:103BC40000000000000000000000000000000000F1
:103BD40000000000000000000000000000000000E1
:103BE40000000000000000000000000000000000D1
:103BF40000000000000000000000000000000000C1
:103C040000000000000000000000000000000000B0
:103C140000000000000000000000000000000000A0
:103C24000000000000000000000000000000000090
:083C34005CC5FF7F01000000E8
:043C3C00FD0200087D
:043C4000D5020008A1
:103C440006010000100000000024F4001000002011
:103C540000000000A40200200C03002074030020D4
:103C64000000000000000000000000000000000050
:103C74000000000000000000000000000000000040
:103C84000000000000000000000000000000000030
:0C3C940000000000000000000000000024
:040000050800228548
:00000001FF
