:020000040800F2
:100000000000022015300008211400082314000805
:100010002514000827140008291400080000000017
:100020000000000000000000000000002B14000889
:100030002D140008000000002F14000831140008DF
:10004000653000086530000865300008653000083C
:10005000653000086530000865300008653000082C
:10006000653000086530000865300008653000081C
:10007000653000086530000865300008653000080C
:1000800065300008653000086530000865300008FC
:1000900065300008653000086530000865300008EC
:1000A00065300008653000086530000865300008DC
:1000B00065300008653000086530000865300008CC
:1000C00065300008653000086530000865300008BC
:1000D00065300008653000086530000865300008AC
:1000E000653000086530000865300008653000089C
:1000F000653000086530000865300008653000088C
:10010000653000086530000865300008653000087B
:10011000653000086530000865300008653000086B
:10012000653000086530000865300008653000085B
:10013000653000086530000865300008653000084B
:10014000653000086530000865300008653000083B
:10015000653000086530000865300008653000082B
:10016000653000086530000865300008653000081B
:1001700065300008653000086530000800000000A8
:0801800065300008653000083D
:1001900010F8012B11F8013B012A28BF9A42F7D031
:1001A000D01A7047000000000000000000000000AE
:1001B00001F0FF01102A2BDB10F0070F08D010F818
:1001C000013B013A8B422DD010F0070F42B3F6D11C
:1001D000F0B441EA012141EA014122F007047FF035
:1001E00000070023F0E80256083C85EA010586EA8C
:1001F000010685FA47F5A3FA87F586FA47F6A5FAC8
:1002000087F68EB9EED1F0BC01F0FF0102F00702D3
:1002100032B110F8013B013A83EA010313B1F8D17E
:100220000020704701387047002D06BF354603385F
:10023000073815F0010F07D1013015F4807F02BF98
:10024000013015F4C03F0130F0BC0138704700BFE9
:10025000034613F8012B002AFBD1181A0138704706
:1002600081F0004102E000BF83F0004330B54FEA67
:1002700041044FEA430594EA050F08BF90EA020FD4
:100280001FBF54EA000C55EA020C7FEA645C7FEA67
:10029000655C00F0E2804FEA5454D4EB5555B8BF8A
:1002A0006D420CDD2C4480EA020281EA030382EAFB
:1002B000000083EA010180EA020281EA0303362D8D
:1002C00088BF30BD11F0004F4FEA01314FF4801C60
:1002D0004CEA113102D0404261EB410113F0004F72
:1002E0004FEA03334CEA133302D0524263EB430329
:1002F00094EA050F00F0A780A4F10104D5F1200EC7
:100300000DDB02FA0EFC22FA05F2801841F1000121
:1003100003FA0EF2801843FA05F359410EE0A5F1F5
:1003200020050EF1200E012A03FA0EFC28BF4CF026
:10033000020C43FA05F3C01851EBE37101F00045DC
:1003400007D54FF0000EDCF1000C7EEB00006EEBE9
:100350000101B1F5801F1BD3B1F5001F0CD3490873
:100360005FEA30004FEA3C0C04F101044FEA4452CA
:1003700012F5800F80F09A80BCF1004F08BF5FEA51
:10038000500C50F1000041EB045141EA050130BD31
:100390005FEA4C0C404141EB0101013C28BFB1F543
:1003A000801FE9D291F0000F04BF01460020B1FA8E
:1003B00081F308BF2033A3F10B03B3F120020CDA61
:1003C0000C3208DD02F1140CC2F10C0201FA0CF03F
:1003D00021FA02F10CE002F11402D8BFC2F1200CA4
:1003E00001FA02F120FA0CFCDCBF41EA0C0190405A
:1003F000E41AA2BF01EB0451294330BD6FEA0404A3
:100400001F3C1CDA0C340EDC04F11404C4F120028D
:1004100020FA04F001FA02F340EA030021FA04F39F
:1004200045EA030130BDC4F10C04C4F1200220FAF6
:1004300002F001FA04F340EA0300294630BD21FA34
:1004400004F0294630BD94F0000F83F4801306BFFA
:1004500081F480110134013D4EE77FEA645C18BFEE
:100460007FEA655C29D094EA050F08BF90EA020F85
:1004700005D054EA000C04BF1946104630BD91EA7D
:10048000030F1EBF0021002030BD5FEA545C05D180
:100490004000494128BF41F0004130BD14F58004BF
:1004A0003CBF01F5801130BD01F0004545F0FE4133
:1004B00041F470014FF0000030BD7FEA645C1ABF68
:1004C000194610467FEA655C1CBF0B46024650EA9F
:1004D000013406BF52EA033591EA030F41F40021CB
:1004E00030BD00BF90F0000F04BF0021704730B551
:1004F0004FF4806404F132044FF000054FF0000126
:1005000050E700BF90F0000F04BF0021704730B5E6
:100510004FF4806404F1320410F0004548BF4042BB
:100520004FF000013EE700BF42004FEAE2014FEA10
:1005300031014FEA02701FBF12F07F4393F07F4FEB
:1005400081F06051704732F07F4208BF704793F0EE
:100550007F4F04BF41F40021704730B54FF4607401
:1005600001F0004521F000411CE700BF50EA010204
:1005700008BF704730B54FF000050AE050EA0102AD
:1005800008BF704730B511F0004502D5404261EB1D
:1005900041014FF4806404F132045FEA915C3FF45E
:1005A000D8AE4FF003025FEADC0C18BF03325FEAFB
:1005B000DC0C18BF033202EBDC02C2F1200300FAAC
:1005C00003FC20FA02F001FA03FE40EA0E0021FAD1
:1005D00002F11444BDE600BF70B54FF0FF0C4CF4BF
:1005E000E06C1CEA11541DBF1CEA135594EA0C0F71
:1005F00095EA0C0F00F0DEF82C4481EA030621EAAC
:100600004C5123EA4C5350EA013518BF52EA0335E6
:1006100041F4801143F4801338D0A0FB02CE4FF098
:100620000005E1FB02E506F00042E0FB03E54FF0C8
:100630000006E1FB03569CF0000F18BF4EF0010EC0
:10064000A4F1FF04B6F5007F64F5407404D25FEABC
:100650004E0E6D4146EB060642EAC62141EA55516F
:100660004FEAC52040EA5E504FEACE2EB4F1FD0CB1
:1006700088BFBCF5E06F1ED8BEF1004F08BF5FEA2F
:10068000500E50F1000041EB045170BD06F00046E1
:1006900046EA010140EA020081EA0301B4EB5C048E
:1006A000C2BFD4EB0C0541EA045170BD41F4801186
:1006B0004FF0000E013C00F3AB8014F1360FDEBFAB
:1006C000002001F0004170BDC4F10004203C35DA87
:1006D0000C341BDC04F11404C4F1200500FA05F30A
:1006E00020FA04F001FA05F240EA020001F00042AB
:1006F00021F0004110EBD37021FA04F642EB060121
:100700005EEA430E08BF20EAD37070BDC4F10C044A
:10071000C4F1200500FA04F320FA05F001FA04F20E
:1007200040EA020001F0004110EBD37041F10001FA
:100730005EEA430E08BF20EAD37070BDC4F1200505
:1007400000FA05F24EEA020E20FA04F301FA05F26D
:1007500043EA020321FA04F001F0004121FA04F215
:1007600020EA020000EBD3705EEA430E08BF20EAE5
:10077000D37070BD94F0000F0FD101F0004640001F
:1007800041EB010111F4801F08BF013CF7D041EAA1
:10079000060195F0000F18BF704703F000465200A5
:1007A00043EB030313F4801F08BF013DF7D043EA76
:1007B0000603704794EA0C0F0CEA135518BF95EA2C
:1007C0000C0F0CD050EA410618BF52EA4306D1D1B3
:1007D00081EA030101F000414FF0000070BD50EAD2
:1007E000410606BF1046194652EA430619D094EA5C
:1007F0000C0F02D150EA013613D195EA0C0F05D146
:1008000052EA03361CBF104619460AD181EA030199
:1008100001F0004141F0FE4141F470014FF0000051
:1008200070BD41F0FE4141F4780170BD70B54FF0EC
:10083000FF0C4CF4E06C1CEA11541DBF1CEA13556C
:1008400094EA0C0F95EA0C0F00F0A7F8A4EB05044E
:1008500081EA030E52EA03354FEA013100F0888045
:100860004FEA03334FF0805545EA131343EA12630E
:100870004FEA022245EA111545EA10654FEA0026C3
:100880000EF000419D4208BF964244F1FD0404F57C
:10089000407402D25B084FEA3202B61A65EB0305D8
:1008A0005B084FEA32024FF480104FF4002CB6EB95
:1008B000020E75EB030E22BFB61A754640EA0C0015
:1008C0005B084FEA3202B6EB020E75EB030E22BF55
:1008D000B61A754640EA5C005B084FEA3202B6EB96
:1008E000020E75EB030E22BFB61A754640EA9C0055
:1008F0005B084FEA3202B6EB020E75EB030E22BF25
:10090000B61A754640EADC0055EA060E18D04FEAE2
:10091000051545EA16754FEA06164FEAC30343EA82
:1009200052734FEAC2025FEA1C1CC0D111F4801F4F
:100930000BD141EA00014FF000004FF0004CB6E748
:1009400011F4801F04BF01430020B4F1FD0C88BFE7
:10095000BCF5E06F3FF6AFAEB5EB030C04BFB6EBF2
:10096000020C5FEA500C50F1000041EB045170BDE5
:100970000EF0004E4EEA113114EB5C04C2BFD4EB12
:100980000C0541EA045170BD41F480114FF0000E96
:10099000013C90E645EA060E8DE60CEA135594EA12
:1009A0000C0F08BF95EA0C0F3FF43BAF94EA0C0F15
:1009B0000AD150EA01347FF434AF95EA0C0F7FF48A
:1009C00025AF104619462CE795EA0C0F06D152EADE
:1009D00003353FF4FDAE1046194622E750EA4106C2
:1009E00018BF52EA43067FF4C5AE50EA41047FF4D3
:1009F0000DAF52EA43057FF4EBAE12E74FF0FF3C38
:100A000006E000BF4FF0010C02E000BF4FF0010C08
:100A10004DF804CD4FEA410C7FEA6C5C4FEA430C81
:100A200018BF7FEA6C5C1BD001B050EA410C0CBFD0
:100A300052EA430C91EA030F02BF90EA020F002032
:100A4000704710F1000F91EA030F58BF994208BF99
:100A500090422CBFD8176FEAE37040F00100704756
:100A60004FEA410C7FEA6C5C02D150EA013C07D1AD
:100A70004FEA430C7FEA6C5CD6D152EA033CD3D0F8
:100A80005DF8040B704700BF8446104662468C46F2
:100A90001946634600E000BF01B5FFF7B7FF002825
:100AA00048BF10F1000F01BD4DF808EDFFF7F4FF4E
:100AB0000CBF012000205DF808FB00BF4DF808EDD9
:100AC000FFF7EAFF34BF012000205DF808FB00BFFC
:100AD0004DF808EDFFF7E0FF94BF012000205DF81E
:100AE00008FB00BF4DF808EDFFF7CEFF94BF0120D3
:100AF00000205DF808FB00BF4DF808EDFFF7C4FFCC
:100B000034BF012000205DF808FB00BF4FEA410C14
:100B10007FEA6C5C02D150EA013C0AD14FEA430CF7
:100B20007FEA6C5C02D152EA033C02D14FF0000034
:100B300070474FF0010070474FEA410212F5001272
:100B400015D211D56FF47873B3EB625212D94FEA14
:100B5000C12343F0004343EA505311F0004F23FAFE
:100B600002F018BF404270474FF00000704750EA53
:100B7000013005D111F0004008BF6FF00040704710
:100B80004FF00000704700BF53B94AB9002908BFB1
:100B900000281CBF4FF0FF314FF0FF3000F00CB8C1
:100BA000ADF1080C6DE904CE05F0D8FDDDF804E0E8
:100BB000DDE9022304B07047704700BF0348044BCF
:100BC000834202D0034B03B118477047D401002081
:100BD000D4010020000000000548064B1B1AD90F65
:100BE00001EBA301491002D0034B03B11847704732
:100BF000D4010020D40100200000000010B5064CF4
:100C0000237843B9FFF7DAFF044B13B10448AFF37D
:100C100000800123237010BDD401002000000000DB
:100C2000546A000808B5054B1BB105490548AFF3E8
:100C30000080BDE80840FFF7CFBF00BF0000000004
:100C4000D8010020546A000810B582B00446164945
:100C5000FFF79EFAF8B115492046FFF799FAE8B177
:100C600013492046FFF794FAD0B112492046FFF706
:100C70008FFAB8B101AA1049204602F06BFE012894
:100C800001D0002008E0019B5A1E0B2AF9D80B4A1C
:100C90001370052000E0012002B010BD0220FBE728
:100CA0000320F9E70420F7E77C6A0008846A00085B
:100CB0008C6A0008946A00089C6A00080000002002
:100CC00010B58EB0FFF7C0FF052859D8DFE800F057
:100CD0005503142533422B4B1B78012B08D00123DD
:100CE000284A1370284A1360284801F0B9FE47E0EB
:100CF000274801F0B5FE43E0224B1B78022B08D0B9
:100D00000223204A1370204A1360224801F0A8FEF3
:100D100036E0214801F0A4FE32E01A4B1B7833B1D3
:100D2000184B00221A701D4801F09AFE28E01C485A
:100D300001F096FE24E0134B1B78032B06D0114BD9
:100D400003221A70174801F08BFE19E0164801F0D3
:100D500087FE15E00B4B1B78022B03D0134801F0E4
:100D60007FFE0DE001AC124B1A781249204602F0CA
:100D7000CFFD204601F074FE02E00F4801F070FE46
:100D80000EB010BD00020020FC010020A06A000887
:100D9000E06A0008F46A0008346B0008486B000839
:100DA000606B0008786B0008B86B0008EC6B0008FB
:100DB00000000020D06B00081C6C000800B589B052
:100DC0002021684601F09CFE002802DA09B05DF897
:100DD00004FB6846FFF774FFF8E7000038B501F040
:100DE00023FC524B1B68C31A632B00D838BD4F4BF2
:100DF000186001F039FF04464D4B1B78032BF5D8E2
:100E0000DFE803F002153A4E4A4C00224FF400414D
:100E1000204601F04CFB00224FF48051204601F0A7
:100E200046FB02F095F8444B00221A70DEE7414D74
:100E300001224FF40041284601F039FB00224FF413
:100E40008051284601F033FB94ED050AF1EE047A57
:100E5000B4EEE70AF1EE10FA06DBF3EE097AB4EE2F
:100E6000E70AF1EE10FA02D902F072F8BEE702F0DA
:100E700075F802F05BF8B9E72E4C01224FF480516F
:100E8000204601F014FB00224FF40041204601F0FF
:100E90000EFB2A4B187802F089F802F047F8A5E714
:100EA000254B1B78032BA1D8DFE803F0021A2C3660
:100EB000204C01224FF40041204601F0F8FA0122B3
:100EC0004FF48051204601F0F2FA1B4B01221A70B8
:100ED00001F0AAFB1A4B18601A4801F0C1FD85E722
:100EE00001F084FE38B1144B02221A7001F09CFB11
:100EF000134B18607AE70E4B00221A70124801F06B
:100F0000AFFD73E701F0A8FF0B4B03221A7001F04D
:100F10008BFB0B4B186069E702F060F80B4801F09F
:100F20009FFD034B00221A7060E700BFF80100200C
:100F300000020020000C0240F4010020000000200C
:100F4000F0010020686C00087C6C0008A86C0008A8
:100F500072B6FEE710B594B008AC302200212046EE
:100F600002F02EFE00230393049305930693079348
:100F70000193184A116C41F080511164126C02F017
:100F800080520192019A0293134A116841F4804100
:100F90001160126802F480420292029A02220892C0
:100FA00001220B9210220C920E93204600F05CFE60
:100FB00060B90F23039300210491059106910791D5
:100FC00003A801F0A1F818B914B010BDFFF7C0FFD5
:100FD000FFF7BEFF003802400070004010B501F07E
:100FE000FDFAFFF7B7FF00F02FF800F0FBF800F074
:100FF0006DF900F0C3F901F037FEE0B10F4C0021AC
:10100000204600F043FD236840F2DC525A6301F0B1
:1010100039FE01F083FF01F09BFF094801F020FD3C
:1010200001F022FE074B196801F0B4FEFFF7C6FE7F
:10103000FFF7D4FEF4E7FFF78BFF00BF04020020A8
:10104000D46C0008FC0100202DE9F04188B003AD0C
:101050000024039404940594069407940094244B6C
:101060001A6B42F001021A631A6B02F0010200923D
:10107000009A01941A6B42F008021A631A6B02F08C
:1010800008020192019A02941A6B42F004021A6358
:101090001B6B03F004030293029B164F22464FF48E
:1010A0007041384601F003FA4FF00108CDF80C808A
:1010B000049402230593104E2946304601F0FAF8B5
:1010C0004FF470430393CDF810800594069429469D
:1010D000384601F0EFF84FF400730393049405943D
:1010E0002946304601F0E6F808B0BDE8F08100BFBF
:1010F00000380240000C02400000024082B0036849
:10110000104A934204D0104A93420ED002B0704766
:10111000002300930D4B5A6C42F001025A645B6C41
:1011200003F001030093009BF0E700230193074BBA
:101130001A6C42F002021A641B6C03F00203019362
:10114000019BE3E70000014000040040003802403A
:1011500000B589B000230393049305930693079386
:1011600003681B4A934205D01A4A93421AD009B029
:101170005DF804FB00230193174B1A6B42F0010248
:101180001A631B6B03F001030193019B4FF48073FF
:101190000393022304930123079303A90F4801F04B
:1011A00089F8E4E7002302930B4B1A6B42F0040228
:1011B0001A631B6B03F004030293029B4023039307
:1011C00002230493079303A9054801F073F8CEE7BF
:1011D00000000140000400400038024000000240CE
:1011E0000008024010B596B0002412941394149491
:1011F00015941094119409940A940B940C940D94E2
:101200000E940F942022214601A802F0D9FC2D480B
:101210002D4B03600F234360846046F2A813C36024
:1012200004614461846100F097FA002838D14FF4DA
:101230008053129312A9234800F099FB002832D161
:10124000204800F0B5FA002830D100231093119304
:1012500010A91C4800F098FC58BB602309930A238E
:101260000A9300220B920C920D920E920F9209A9F2
:10127000144800F001FBF8B9002301930293039393
:10128000049305934FF400520692089301A90D4868
:1012900000F0C0FC98B90B48FFF75AFF16B010BD1C
:1012A000FFF756FEC3E7FFF753FEC9E7FFF750FE0F
:1012B000CBE7FFF74DFED0E7FFF74AFEDCE7FFF78D
:1012C00047FEE8E74C0200200000014000B58FB067
:1012D00000230A930B930C930D93089309930193A6
:1012E0000293039304930593069307932148224A9C
:1012F00002600F224260836044F61F62C260036195
:10130000836100F029FA28BB4FF480530A930AA99D
:10131000184800F02CFB00BB164800F049FAF8B959
:1013200000230893099308A9124800F02DFCD0B9B6
:10133000602301933223029300220392059201A9B4
:101340000C4800F099FA88B90A48FFF701FF0FB07E
:101350005DF804FBFFF7FCFDD6E7FFF7F9FDDBE7DF
:10136000FFF7F6FDDCE7FFF7F3FDE1E7FFF7F0FD40
:10137000EAE700BF040200200004004008B50A4864
:101380000A4B03604FF4E133436000238360C36082
:1013900003610C2242618361C36101F058FA00B914
:1013A00008BDFFF7D5FDFBE7940200200044004094
:1013B00000B589B000230393049305930693079324
:1013C0000268154B9A4202D009B05DF804FB002177
:1013D000019103F5FA331A6C42F400321A641A6C64
:1013E00002F400320192019A02911A6B42F001025A
:1013F0001A631B6B03F001030293029B0C230393FC
:1014000002230493032306930723079303A90348A6
:1014100000F050FFD8E700BF004400400000024049
:10142000FEE7FEE7FEE7FEE7FEE77047704770471E
:1014300008B501F0EDF808BD82B0002100910B4B1A
:101440005A6C42F480425A645A6C02F48042009210
:10145000009A01911A6C42F080521A641B6C03F0DE
:1014600080530193019B02B0704700BF00380240D7
:1014700030B4036A026A22F001020262426884699F
:1014800024F0730C0C6844EA0C0423F0020C8B6803
:1014900043EA0C03114DA84203D005F58065A8422C
:1014A00005D123F00803CD682B4323F004030B4D33
:1014B000A84203D005F58065A84207D122F4407206
:1014C0004D6945EA020C8A6942EA0C024260846175
:1014D0004A684263036230BC704700BF00000140AD
:1014E00030B4036A026A22F4807202624268C469FC
:1014F00024F0730C0C6844EA0C0523F400738C6828
:1015000043EA0423114CA04203D004F58064A042B6
:1015100006D123F40063CC6843EA042323F48063F8
:101520000A4CA04203D004F58064A04207D122F403
:1015300040524C6942EA04128C6942EA0412426049
:10154000C5614A68C263036230BC70470000014055
:1015500030B4036A026A22F4805202624468C269AB
:1015600022F4E6420D6842EA052223F400538D6816
:1015700043EA0533094DA84203D005F58065A8422A
:1015800004D124F480444D6944EA85144460C26166
:101590004A680264036230BC704700BF000001402B
:1015A00010B4036A046A24F001040462846924F01C
:1015B000F00C4CEA021223F00A030B43826103622F
:1015C0005DF8044B704710B4036A046A24F01004F9
:1015D0000462846924F4704C4CEA023223F0A003C4
:1015E00043EA0113826103625DF8044B704783682C
:1015F00023F070030B4343F0070383607047000040
:1016000090F83D30012B32D1022380F83D30036841
:10161000194A934220D0B3F1804F1DD0A2F57C42ED
:10162000934219D002F58062934215D002F5806290
:10163000934211D002F5784293420DD002F57052D8
:10164000934209D0A2F59432934205D01A6842F031
:1016500001021A60002070479A6802F00702062A09
:1016600007D01A6842F001021A600020704701207A
:1016700070470020704700BF000001407047000025
:101680000368344A904212D0B0F1804F0FD0A2F5D7
:101690007C4290420BD002F58062904207D002F566
:1016A0008062904203D002F57842904203D123F049
:1016B00070034A681343274A90422AD0B0F1804F02
:1016C00027D0A2F57C42904223D002F5806290425E
:1016D0001FD002F5806290421BD002F57842904202
:1016E00017D002F57052904213D002F580629042FA
:1016F0000FD002F5806290420BD0A2F59832904252
:1017000007D002F58062904203D002F580629042D9
:1017100003D123F44073CA68134323F080034A695A
:10172000134303608B68C3620B688362094B984262
:1017300003D003F58063984201D10B690363012351
:101740004361036913F0010F03D0036923F0010320
:10175000036170470000014040B310B5044690F8A3
:101760003D30F3B1022384F83D30214651F8040B9B
:10177000FFF786FF012384F8463084F83E3084F872
:101780003F3084F8403084F8413084F8423084F8A7
:10179000433084F8443084F8453084F83D300020EC
:1017A00010BD80F83C30FFF7A9FCDBE70120704753
:1017B00040B310B5044690F83D30F3B1022384F8ED
:1017C0003D30214651F8040BFFF75AFF012384F8FE
:1017D000463084F83E3084F83F3084F8403084F856
:1017E000413084F8423084F8433084F8443084F83F
:1017F000453084F83D30002010BD80F83C30FFF7C4
:101800003DFFDBE70120704730B4036A026A22F033
:10181000100202624468826922F4E6420D6842EADC
:10182000052223F020038D6843EA0513114DA842D9
:1018300003D005F58065A84206D123F08003CD686A
:1018400043EA051323F040030A4DA84203D005F5EF
:101850008065A84207D124F440644D6944EA8504B8
:101860008D6944EA8504446082614A688263036248
:1018700030BC70470000014038B590F83C30012B77
:1018800066D004460D46012380F83C300C2A5AD815
:10189000DFE802F0075959591B595959305959591C
:1018A00044000068FFF7E4FD2268936943F00803F1
:1018B00093612268936923F004039361226893691A
:1018C00029690B43936100203EE00068FFF79CFF0D
:1018D0002268936943F4006393612268936923F457
:1018E0008063936122689369296943EA01239361C4
:1018F000002029E00068FFF7F3FD2268D36943F078
:101900000803D3612268D36923F00403D3612268FA
:10191000D36929690B43D361002015E00068FFF704
:1019200017FE2268D36943F40063D3612268D36948
:1019300023F48063D3612268D369296943EA0123D0
:10194000D361002000E00120002384F83C3038BD42
:101950000220FCE710B4846824F47F4C42EA03229E
:101960000A4342EA0C0282605DF8044B704790F82B
:101970003C30012B78D010B50446012380F83C3070
:10198000022380F83D300268936823F47F4323F0FC
:10199000770393600B68602B4CD023D8402B54D036
:1019A00011D8202B03D00AD80BB1102B05D1194622
:1019B0002068FFF71CFE002028E0012026E0302BE5
:1019C000F5D0012022E0502B0AD1CA68496800688E
:1019D000FFF7E6FD50212068FFF709FE002015E023
:1019E000012013E0B3F5805F3AD0B3F5005F14D067
:1019F000702B37D1CB684A6889680068FFF7AAFF67
:101A00002268936843F0770393600020012384F8F1
:101A10003D30002384F83C3010BDCB684A688968AB
:101A20000068FFF797FF2268936843F48043936050
:101A30000020EBE7CA6849680068FFF7C4FD602131
:101A40002068FFF7D4FD0020E0E7CA684968006815
:101A5000FFF7A6FD40212068FFF7C9FD0020D5E76C
:101A60000020D3E70120D1E70220704701F01F01D9
:101A70004FF0010C0CFA01FC036A23EA0C03036229
:101A8000036A8A40134303627047000010B504469E
:101A90000846002941D194F83E30013B18BF01238C
:101AA000002B6BD100284ED1022384F83E30012256
:101AB00001462068FFF7DAFF2368324A934203D0D9
:101AC00002F58062934203D15A6C42F400425A6498
:101AD00023682C4A934246D0B3F1804F43D0A2F5FD
:101AE0007C4293423FD002F5806293423BD002F5A4
:101AF0008062934237D002F57842934233D002F5A8
:101B0000705293422FD0A2F5943293422BD01A6890
:101B100042F001021A6000202FE0042907D00829B2
:101B20000BD094F84130013B18BF0123B8E794F87B
:101B30003F30013B18BF0123B2E794F84030013B2E
:101B400018BF0123ACE7042805D0082807D00223DA
:101B500084F84130ABE7022384F83F30A7E7022343
:101B600084F84030A3E79A6802F00702062A07D0FB
:101B70001A6842F001021A60002010BD0120FCE743
:101B80000020FAE70000014090F83C20012A3DD0F7
:101B900010B40346012280F83C20022280F83D2048
:101BA00002685068946820F0700C086840EA0C00E5
:101BB00050601A68164882421AD0B2F1804F17D08E
:101BC000A0F57C40824213D000F5806082420FD0A5
:101BD00000F5806082420BD000F57840824207D049
:101BE00000F57050824203D0A0F59430824204D1B7
:101BF00024F08004496821439160012283F83D204C
:101C0000002083F83C005DF8044B704702207047C9
:101C100000000140024690F83C30012B21D0012306
:101C200080F83C30CB6823F440738868034323F486
:101C300080634868034323F400630868034323F484
:101C400080530869034323F400534869034323F492
:101C50008043C9690B4311684B64002082F83C0043
:101C60007047022070470000002800F0E08170B546
:101C700082B00446036813F0010F3BD09F4B9B6872
:101C800003F00C03042B2CD09C4B9B6803F00C033B
:101C9000082B21D06368B3F5803F4FD0B3F5A02F58
:101CA00052D0964B1A6822F480321A601A6822F4D5
:101CB00080221A606368002B50D000F0B5FC054606
:101CC0008E4B1B6813F4003F14D100F0ADFC401B99
:101CD0006428F5D90320B1E1884B5B6813F4800FC9
:101CE000D8D0864B1B6813F4003F03D06368002BE9
:101CF00000F09F81236813F0020F54D07F4B9B6844
:101D000013F00C0F3ED07D4B9B6803F00C03082BA7
:101D100033D0E368002B68D0794B01221A6000F0C1
:101D200083FC0546754B1B6813F0020F54D100F07D
:101D30007BFC401B0228F5D903207FE16F4A136822
:101D400043F480331360B5E76C4B1A6842F4802289
:101D50001A601A6842F480321A60ABE700F064FC43
:101D60000546664B1B6813F4003FC3D000F05CFCD3
:101D7000401B6428F5D9032060E1604B5B6813F4D5
:101D8000800FC6D15D4B1B6813F0020F03D0E368D0
:101D9000012B40F05081594A136823F0F803216960
:101DA00043EAC1031360236813F0080F42D063694C
:101DB0006BB3534B0122C3F8802E00F035FC05466F
:101DC0004E4B5B6F13F0020F34D100F02DFC401B23
:101DD0000228F5D9032031E1484A136823F0F803BB
:101DE000216943EAC1031360DDE7454B00221A6015
:101DF00000F01AFC0546414B1B6813F0020FD2D0CD
:101E000000F012FC401B0228F5D9032016E13C4BE0
:101E10000022C3F8802E00F007FC0546374B5B6FAD
:101E200013F0020F06D000F0FFFB401B0228F5D98B
:101E3000032003E1236813F0040F77D02F4B1B6CB2
:101E400013F0805F33D1002301932C4B1A6C42F0C6
:101E500080521A641B6C03F080530193019B01258F
:101E6000284B1B6813F4807F23D0A368012B34D048
:101E7000052B38D0214B1A6F22F001021A671A6F16
:101E800022F004021A67A368002B3DD000F0CCFBBF
:101E900006461A4B1B6F13F0020F46D100F0C4FB2D
:101EA000801B41F288339842F3D90320C6E0002515
:101EB000D6E7144A136843F48073136000F0B4FB50
:101EC0000646104B1B6813F4807FCED100F0ACFBAC
:101ED000801B0228F5D90320B0E0084A136F43F0B5
:101EE00001031367CFE7054B1A6F42F004021A672C
:101EF0001A6F42F001021A67C5E700BF00380240BE
:101F0000000047420070004000F08EFB0646524B36
:101F10001B6F13F0020F08D000F086FB801B41F20C
:101F200088339842F3D9032088E0EDB9A369002BE8
:101F300000F08380484A926802F00C02082A51D0CF
:101F4000022B17D0454B00221A6600F06DFB0446A9
:101F5000414B1B6813F0007F42D000F065FB001B73
:101F60000228F5D9032069E03B4A136C23F0805323
:101F70001364DBE7394B00221A6600F055FB054677
:101F8000354B1B6813F0007F06D000F04DFB401B63
:101F90000228F5D9032051E0E369226A1343626AFB
:101FA00043EA8213A26A5208013A43EA0243E26A10
:101FB00043EA0263284A5360284B01221A6600F064
:101FC00033FB0446244B1B6813F0007F06D100F05E
:101FD0002BFB001B0228F5D903202FE000202DE069
:101FE00000202BE0012B2BD01B4B5B6803F48001FE
:101FF000E269914226D103F03F02216A8A4223D14D
:10200000616A47F6C0721A40B2EB811F1ED103F419
:102010004031A26A5208013AB1EB024F18D103F0E5
:102020007063E26AB3EB026F14D1002006E0012076
:102030007047012002E0012000E0002002B070BDE6
:102040000120FBE70120F9E70120F7E70120F5E790
:102050000120F3E70120F1E7003802400000474289
:1020600008B5264B9B6803F00C03042B41D0082BCA
:1020700041D1224B5A6802F03F025B6813F4800F93
:1020800012D01E4B5968C1F388111D480023A1FBD3
:102090000001FEF779FD194B5B68C3F3014301337F
:1020A0005B00B0FBF3F008BD144B5868C0F3881018
:1020B0004FEA401CBCEB000C6EEB0E0E4FEA8E1389
:1020C00043EA9C634FEA8C11B1EB0C0163EB0E0306
:1020D000DB0043EA5173C90011EB000C43F100032C
:1020E000990200234FEA8C2041EA9C51FEF74CFDF7
:1020F000D1E70348D7E70348D5E700BF00380240DF
:1021000040787D010024F400002800F09B8070B529
:102110000D4604464F4B1B6803F007038B4208D261
:10212000CBB24C4A1370136803F007038B4240F0A4
:102130008B80236813F0020F17D013F0040F04D024
:10214000454A936843F4E0539360236813F0080F03
:1021500004D0414A936843F4604393603E4A9368D5
:1021600023F0F003A1680B439360236813F0010F81
:1021700032D06368012B21D09A1E012A25D9364A14
:10218000126812F0020F61D033498A6822F003020C
:1021900013438B6000F048FA06462F4B9B6803F010
:1021A0000C036268B3EB820F16D000F03DFA801B7F
:1021B00041F288339842F0D9032042E0264A12685F
:1021C00012F4003FE0D101203BE0234A126812F0F4
:1021D000007FD9D1012034E01E4B1B6803F00703B8
:1021E000AB4207D9EAB21B4B1A701B6803F0070316
:1021F000AB422DD1236813F0040F06D0164A936822
:1022000023F4E053E1680B439360236813F0080F55
:1022100007D0114A936823F46043216943EAC1035C
:102220009360FFF71DFF0C4B9B68C3F303130B4A2E
:10223000D35CD8400A4B18600A4B186800F0A8F924
:10224000002070BD012070470120FAE70120F8E767
:102250000120F6E7003C024000380240946E00087E
:102260000800002004000020014B1868704700BFE0
:102270000800002008B5FFF7F7FF044B9B68C3F385
:102280008223034AD35CD84008BD00BF0038024017
:102290008C6E000808B5FFF7E7FF044B9B68C3F39B
:1022A0004233034AD35CD84008BD00BF0038024027
:1022B0008C6E000800230F2B00F2E98070B582B00D
:1022C00065E085684FEA430E032404FA0EF425EA1C
:1022D0000405CC6804FA0EF42C438460446824EAB4
:1022E00002044A68C2F300129A40224342605CE052
:1022F000DC08083450F8242003F00705AD004FF047
:102300000F0E0EFA05FE22EA0E0E0A69AA4042EAF4
:102310000E0240F824205CE0072200E0002202FACE
:102320000EF22A4302345A4D45F82420594A946843
:102330006FEA0C0224EA0C054E6816F4801F01D0E7
:102340004CEA0405534CA560E46802EA04054E68B3
:1023500016F4001F01D04CEA04054E4CE560646899
:1023600002EA04054E6816F4003F01D04CEA040569
:10237000484C6560246822404D6815F4803F01D0C8
:102380004CEA0402434C226001330F2B7DD801221A
:102390009A400C6804EA020C32EA0404F4D14C6856
:1023A00004F00304013C012C8BD94A6802F00302BB
:1023B000032A09D0C4685D000322AA4024EA02046B
:1023C0008A68AA402243C2604A6802F00302022AD5
:1023D0008ED004684FEA430E032202FA0EF224EA7A
:1023E00002044A6802F0030202FA0EF2224302607B
:1023F0004A6812F4403FC7D000220192264A546C2A
:1024000044F480445464526C02F480420192019A74
:102410009C08A51C1E4A52F8255003F0030E4FEAF3
:102420008E0E0F2202FA0EF225EA02051B4A904296
:102430003FF474AF02F5806290421AD002F58062D8
:10244000904218D002F58062904216D002F5806268
:10245000904214D002F58062904212D002F5806260
:10246000904210D002F5806290423FF455AF0822AE
:1024700055E7012253E7022251E703224FE70422E6
:102480004DE705224BE7062249E702B070BD7047D1
:1024900000380140003C014000380240000002408A
:1024A0000369194201D001207047002070470AB12A
:1024B000816170470904816170470000002808DBD2
:1024C0000901C9B200F1604000F5614080F80013D5
:1024D000704700F00F000901C9B2014B1954704751
:1024E00014ED00E000B500F00700C0F1070CBCF1EE
:1024F000040F28BF4FF0040C031D062B0FD9C31E79
:102500004FF0FF3E0EFA0CF021EA000199400EFA5E
:1025100003FE22EA0E0241EA02005DF804FB0023FA
:10252000EEE70000074AD36823F4E0631B041B0CAA
:10253000000200F4E060034343F0BF6343F4003360
:10254000D360704700ED00E010B50446054BD86835
:10255000C0F30220FFF7C6FF01462046FFF7AEFF9B
:1025600010BD00BF00ED00E00138B0F1807F0BD25C
:102570004FF0E0235861054AF02182F82310002033
:10258000986107221A6170470120704700ED00E052
:1025900010B504460E4B1A784FF47A73B3FBF2F37E
:1025A0000C4A1068B0FBF3F0FFF7DEFF68B90F2CA0
:1025B00001D901200AE0002221464FF0FF30FFF749
:1025C000C3FF054B1C60002000E0012010BD00BFD0
:1025D00001000020080000200400002008B50B4B7B
:1025E0001A6842F400721A601A6842F480621A6033
:1025F0001A6842F480721A600320FFF793FF0F20DD
:10260000FFF7C6FFFEF718FF002008BD003C0240A0
:10261000034A1168034B1B780B441360704700BFDB
:10262000DC02002001000020014B1868704700BF49
:10263000DC02002038B50446FFF7F6FF0546B4F18A
:10264000FF3F02D0044B1B781C44FFF7EDFF401BFB
:10265000A042FAD338BD00BF01000020026802F199
:102660000C0353E8003F23F490730C3242E800312E
:102670000029F3D1026802F1140353E8003F23F06C
:102680000103143242E800310029F3D1036B012B1E
:1026900005D0202380F8423000230363704702688E
:1026A00002F10C0353E8003F23F010030C3242E820
:1026B00000310029F3D1ECE710B504460268136934
:1026C00023F44053C1680B431361836802691A43C2
:1026D00043691A43C3691A430168CB6823F416435C
:1026E00023F00C031343CB600268536923F4407357
:1026F00081690B4353610368314A934206D002F566
:102700008062934202D0FFF7B5FD01E0FFF7C2FD02
:10271000E369B3F5004F29D00021031849411B1884
:1027200041F10001C90041EA5371DB0018186368E8
:102730004FEA83024FEA937341F10001FEF724FA56
:10274000204AA2FB00314909642303FB11031B014A
:102750003233A2FB03235B0903F0F00202EB011208
:1027600003F00F03216813448B6010BD002302188F
:1027700043EB0301121841F10001C90041EA527113
:10278000D200101841F10001626892185B41FEF717
:10279000FBF90C4AA2FB00314909642303FB110336
:1027A000DB003233A2FB03235B095A0002F4F87208
:1027B00002EB011203F00703216813448B60D4E796
:1027C000001001401F85EB512DE9F04383B0054611
:1027D0000E4617469946DDF828802B681C6836EAB5
:1027E00004040CBF01240024BC4228D1B8F1FF3FEF
:1027F000F3D0FFF719FFA0EB0900404523D8B8F14B
:10280000000F22D02B68DA6812F0040FE5D0802E7A
:10281000E3D0402EE1D01A6812F0080FDDD000247A
:1028200001941A6801925B680193019B2846FFF7A7
:1028300015FF08236B6485F84040012000E000206C
:1028400003B0BDE8F0830320FAE70320F8E760B3A4
:1028500010B5044690F8413013B3242384F8413076
:102860002268D36823F40053D3602046FFF724FF87
:102870002268136923F4904313612268536923F09B
:102880002A0353612268D36843F40053D3600020C5
:102890006064202384F8413084F84230606310BDC6
:1028A00080F84030FEF784FDD7E7012070472DE91E
:1028B000F04182B01E4690F84130202B56D104469C
:1028C0000D469046002955D00AB901204FE000235B
:1028D0004364212380F84130FFF7A6FE0746A4F8A1
:1028E0002480A4F82680A368B3F5805F02D04FF05F
:1028F000000814E023692BB34FF000080FE02023F9
:1029000084F84130032032E038F8023B2268C3F3F8
:1029100008035360E28C92B2013A92B2E284E38CF3
:102920009BB293B100963B46002280212046FFF7E0
:102930004BFF0028E3D1002DE6D015F8012B2368CA
:102940005A60E7E7A8460025E9E700963B460022E3
:1029500040212046FFF738FF18B9202384F8413082
:1029600005E0202384F84130032000E0022002B07B
:10297000BDE8F0810120FAE72DE9F04182B01E4662
:1029800090F84230202B5AD104460D46904600293B
:1029900059D00AB9012053E000234364222280F871
:1029A00042200363FFF740FE0746A4F82C80A4F8FA
:1029B0002E80A368B3F5805F02D04FF000081AE0C4
:1029C0002369002B33D04FF0000814E0202384F853
:1029D0004230032034E023685B68C3F3080328F81F
:1029E000023B03E023685B682B700135E28D92B2F5
:1029F000013A92B2E285E38D9BB2DBB100963B4691
:102A0000002220212046FFF7DFFE0028DED1002D26
:102A1000E1D0A368B3F5805FE4D013B92369002B3C
:102A2000E0D023685B6803F07F032B70DDE7A846E6
:102A30000025E0E7202384F84230002000E0022057
:102A400002B0BDE8F0810120FAE70000034AD2F8A5
:102A5000883043F47003C2F88830704700ED00E01E
:102A600070B50546FDF7F4FBFC281ED80446214E40
:102A70004FF480720021304601F0A2F830463C232A
:102A800000F8013B2246294601F028F9631C3E224A
:102A9000F254A31C0022F2541A464FF47A7392B2F5
:102AA00031461548FFF703FF70BD124DAC463C237D
:102AB0000CF8013B114C0FCCC5F80100CCF8041008
:102AC000CCF80820CCF80C302068CCF81000A28894
:102AD000A379ACF814208CF816303E232B76002313
:102AE0006B764FF47A73192229460348FFF7DFFE0D
:102AF000DAE700BF0803002094020020106D0008F0
:102B0000F0B583B005460C46002301220DF1070104
:102B10003048FFF731FF002859D19DF807308DF874
:102B2000043000238DF805300A23012201A9294829
:102B3000FFF7BDFE9DF807303C2B19D03E2B24D06B
:102B4000254A1278002A3FD0611E244A1268914219
:102B500035D86423122222491E48FFF7A8FE00231D
:102B60001D4A13701D4A13604FF0FF3003B0F0BDD3
:102B7000194A1278002AE1D1174B01221A70174B1B
:102B800000221A604FF0FF30F0E7134A1278002A53
:102B9000D6D0124F3B6813490026CE542246284611
:102BA00001F016F80A2302220F490A48FFF77FFEB8
:102BB000094B1E703E602846FDF74AFBD6E7501CC5
:102BC0000649086007498B544FF0FF30CEE74FF0BD
:102BD000FF30CBE794020020040300200003002014
:102BE0002C6D0008E0020020286D000830B597B079
:102BF0001848FFF735FFFFF717FD054607E01648B1
:102C0000FFF72EFF012023E06420FFF713FDFFF7FD
:102C10000BFD401B47F22F53984215D820210EA8D8
:102C2000FFF76EFF0028EFDD0C490EA8FDF7B0FAA4
:102C30000028E4D001AC0EAA0949204600F068FE45
:102C40002046FFF70DFFDFE70648FFF709FF0020EA
:102C500017B030BD406D0008986D00088C6D0008FD
:102C6000BC6D0008E06D00080048704710040020AB
:102C7000034B1A6800235362536A8342FCD37047A4
:102C80004C02002070B586B001AC0025019502957C
:102C90000395049505954FF48073019301230293E6
:102CA000094E21463046FFF705FB4FF400730193B0
:102CB00002950223039321463046FFF7FBFA0348AF
:102CC000FEF79EFC06B070BD000002404C020020E2
:102CD00038B52D4C01224FF480712046FFF7E7FBF9
:102CE0000A20FFF7C5FF00224FF480712046FFF74E
:102CF000DEFBFFF799FC00F10A044FF40071224853
:102D0000FFF7CEFB30B9FFF78FFCA042F5D9BFEE3D
:102D1000000A38BD1D4B1B685D6AFFF785FC00F19A
:102D20000A044FF400711848FFF7BAFB012806D1D6
:102D3000FFF77AFCA042F4D9BFEE000AE9E7134B93
:102D40001B685B6A5B1B00EE103AB8EE400ADFEDD1
:102D5000107A20EE270AF6EE007A20EE270AF1EE2E
:102D6000047AB4EEE70AF1EE10FA09D4F3EE097A28
:102D7000B4EEE70AF1EE10FACBDDBFEE000AC8E7C9
:102D8000BFEE000AC5E700BF000002404C02002071
:102D9000287E0C3D012900D0704710B588B004464C
:102DA000FFF742FC274B1B68C31AF92B01D808B068
:102DB00010BD244B18602046FFF78AFF84ED050AFA
:102DC000F1EE047AB4EEE70AF1EE10FA06DBF3EE68
:102DD000097AB4EEE70AF1EE10FA18D91A4B1A681C
:102DE00001321A601949684600F092FD6846FFF703
:102DF00037FE174C00224FF400512046FFF757FBD7
:102E000001224FF480412046FFF751FBCFE710EE3F
:102E1000100AFDF789FB02460B460E49684600F092
:102E200077FD6846FFF71CFE094C01224FF4005164
:102E30002046FFF73CFB00224FF480412046FFF77D
:102E400036FBB4E70C04002008040020286E0008BC
:102E5000000C0240146E000870B52DED028B88B096
:102E6000FFF702FF06462948FFF7FAFDFFF7DCFBF4
:102E700000F59C5508350FE0254C00224FF4005119
:102E80002046FFF714FB01224FF480412046FFF754
:102E90000EFBFA20FFF7CEFBFFF7C6FBA8422DD2B0
:102EA0003046FFF715FFB0EE408A10EE100AFDF72E
:102EB0003BFB02460B461749684600F029FD684671
:102EC000FFF7CEFDF1EE047AB4EEE78AF1EE10FAE8
:102ED000D2DBF3EE097AB4EEE78AF1EE10FACBD842
:102EE0000B4C01224FF400512046FFF7E0FA00227C
:102EF0004FF480412046FFF7DAFACAE70648FFF7A9
:102F0000AFFD08B0BDEC028B70BD00BF446E000881
:102F1000000C0240146E00086C6E000808B5002119
:102F20000148FEF7B3FD08BD04020020B0F57A7F2A
:102F300005D3B0F5FA6F04D94FF4FA6001E04FF40D
:102F40007A70024B1B685863704700BF0402002070
:102F500008B540F2DC50FFF7E9FF08BDF1EE047A56
:102F6000B4EEE70AF1EE10FA09D4F3EE097AB4EE02
:102F7000E70AF1EE10FA04DDB3EE090A01E0B1EE62
:102F8000040AF1EE047A30EE670ADFED077A20EEEC
:102F9000270AB3EE047AC0EE077AFCEEE77A17EE62
:102FA000900A00F57A70704700007A44034618B121
:102FB0000C2802D90C2300E00123013B4FF47A7264
:102FC00002FB03F3044A82FB0312DB17C3EB62002C
:102FD00000F57A70704700BFE9A28B2E08B5FFF7A5
:102FE0009DFF4FF47A70FFF7A1FF4FF47A70FFF75F
:102FF00021FBFFF7ADFF4FF47A70FFF71BFB4FF497
:10300000FA60FFF793FF4FF47A70FFF713FBFFF7B7
:103010009FFF08BDDFF834D0FFF718FD0C480D49BD
:103020000D4A002302E0D458C4500433C4188C4223
:10303000F9D30A4A0A4C002301E013600432A24289
:10304000FBD300F00FFEFDF7C9FF70470000022020
:1030500000000020D401002054720008D401002098
:1030600078050020FEE72DE9FF4757EC106B002F95
:103070000C4619463B46BBBF07F100431F460023E1
:103080002D230B700D9BDDF830A0914623F0200816
:10309000BCBF32461646B8F1460F05D0B8F1450F11
:1030A00000D10134022100E0032103AB019302AB04
:1030B000009347EC106B5346224600F0A5FEB8F192
:1030C000470F054619D119F0010F0ED000EB040986
:1030D0000022002330463946FDF7E6FC08B1CDF862
:1030E0000C903022039B4B451ED3039B0E9A5B1B17
:1030F0002846136004B0BDE8F087B8F1460F00EB36
:103100000409E5D10378302B0AD100220023304690
:103110003946FDF7C9FC18B9C4F10104CAF80040EA
:10312000DAF800309944D3E7591C03911A70D9E7B3
:10313000F7B50029BABF49422D232B230929027074
:10314000437029DD0DF1070425460A272246B1FB0D
:10315000F7F607FB1613303302F8013C0B46632BDE
:1031600004F1FF343146F1DC3031931E04F8011CC8
:10317000411C1C46AB420AD30DF109039B1AA54220
:1031800038BF0023821C1344181A03B0F0BD13F893
:10319000016B01F8016FEDE7302330318370C170AE
:1031A000031DF1E72DE9F04F8DB00C46DDF8588096
:1031B00016461F46054600F07DFD03680693184637
:1031C000FDF746F800230A93D8F8003094F818A0C9
:1031D000D4F800B00790073323F00703B3EC027B69
:1031E0008DED047BC8F80030DDE9048323F000494D
:1031F00084ED127B9C4B4FF0FF3240464946FDF771
:1032000085FC70BB984B4FF0FF3240464946FDF7B6
:103210005FFC30BBDDE9040100220023FDF74EFC1A
:1032200010B12D2384F84330904A914BBAF1470FE7
:103230008CBF90469846032323612BF00403236040
:103240004FF00009009733460BAA2146284600F0AC
:10325000D1F9013040F08C804FF0FF300DB0BDE867
:10326000F08FDDE9042310461946FDF74FFC40B10D
:10327000059B804A002BBCBF2D2384F843307E4B36
:10328000D4E763685A1C0AF0DF093BD10623636068
:103290004BF480620023226003930AABCDE901A3C3
:1032A00009AB009361689DED040B0DF123032846E3
:1032B000FFF7D9FEB9F1470F0999804629D1C81CFB
:1032C00002DB63688B4241DAAAF1020A5FFA8AFAEA
:1032D0000139524604F150000991FFF729FF0A9A7B
:1032E0001318012A8146236102DC2268D20701D526
:1032F000013323619DF82330002BA3D02D2384F8C4
:1033000043309FE7B9F1470FC2D1002BC0D1012351
:10331000BDE7BAF1650FDBD9BAF1660F18D1002904
:1033200063680BDD216113B92268D00702D5013330
:103330000B442361A1654FF00009DBE713B9226854
:10334000D20701D50233F4E70123F2E74FF0670A11
:103350000A9B8B4205DC23682161D807EAD54B1C08
:10336000E7E70029D4BFC1F1020201221344E0E7DC
:1033700023685A0507D42369424631462846B84790
:1033800001302BD168E7BAF1650F40F2DD80D4E956
:10339000120100220023FDF787FB002833D0374AB3
:1033A000012331462846B84701303FF455AFDDE9E7
:1033B0000938434502DB2368D8070FD5DDE906232A
:1033C00031462846B84701303FF446AF4FF0000978
:1033D00008F1FF3804F11A0AC84509DC23689B0785
:1033E00000F10381E0680B9B9842B8BF184635E7AF
:1033F0000123524631462846B84701303FF42CAFEE
:1034000009F10109E8E7099B002B39DC1B4A01237C
:1034100031462846B84701303FF41EAFDDE909398F
:1034200059EA030302D12368D907D7D5DDE906237A
:1034300031462846B84701303FF40EAF4FF0000A3E
:1034400004F11A0B099B5B42534501DC4B4693E7A1
:1034500001235A4631462846B84701303FF4FCAEB6
:103460000AF1010AEEE700BFFFFFEF7FA86E000838
:10347000A46E0008B06E0008AC6E0008936F0008E0
:10348000A36DDDF828A05345A8BF5346002B9946ED
:1034900036DC4FF0000B29EAE97904F11A02A36D3A
:1034A0000493A3EB09035B4531DC099B9A453ADCA5
:1034B0002368DA0737D4099BAAEB0309049BAAEB1C
:1034C00003039945A8BF9946B9F1000F33DC4FF0CB
:1034D000000829EAE97904F11A0B099BAAEB030316
:1034E000A3EB090343457FF779AF01235A463146E1
:1034F0002846B84701303FF4AFAE08F10108ECE7C9
:10350000424631462846B8470130C2D1A4E60123DD
:10351000314628460492B84701303FF49DAE049AE4
:103520000BF1010BBBE7DDE9062331462846B8471E
:103530000130C0D190E6049A4B46424431462846B9
:10354000B8470130C3D187E6DDF828A0BAF1010FF2
:1035500001DCDB0736D50123424631462846B84711
:1035600001303FF479AEDDE9062331462846B847FD
:1035700001303FF471AED4E91201002200230AF1B8
:10358000FF3AFDF791FAC0B9534608F101023146FE
:103590002846B84701300CD15EE601235A46314631
:1035A0002846B84701303FF457AE08F10108D0452E
:1035B000F3DB4B4604F15002DFE64FF0000804F164
:1035C0001A0BF4E701234246E1E701234A4631465C
:1035D0002846B84701303FF43FAE08F10108E368E0
:1035E0000B995B1A4345F0DCFCE64FF0000804F150
:1035F0001909F4E72DE9F047164698468A680B69E1
:10360000DDF820909342B8BF1346336091F8432011
:1036100007460C460AB1013333602368990642BF5E
:10362000336802333360256815F0060506D104F1CE
:10363000190AE36832689B1AAB4226DC94F84330DF
:103640002268003B18BF012392062BD404F14302E9
:1036500041463846C84701301ED02368226903F02E
:103660000603042B02BFE5683368ED1AA3680CBF9C
:1036700025EAE57500259342C4BF9B1AED18002684
:103680001A34B5421AD1002008E0012352464146BF
:103690003846C847013003D14FF0FF30BDE8F0870E
:1036A0000135C6E7E1185A1C302081F84300224456
:1036B00094F8451082F843100233C7E701232246ED
:1036C00041463846C8470130E6D00136D9E7000008
:1036D0002DE9FF470F7E0C9E782F914680460C46C1
:1036E0009A4601F1430207D8622F0AD8002F00F052
:1036F000D280582F00F0B78004F1420684F842705F
:103700003AE0A7F16303152BF6D801A151F823F095
:10371000693700087D370008F9360008F9360008D7
:10372000F9360008F93600087D370008F936000838
:10373000F9360008F9360008F93600087D38000827
:10374000A737000833380008F9360008F9360008B2
:103750009F380008F9360008A7370008F936000836
:10376000F93600083B38000833681A1D1B683260C0
:1037700004F1420684F8423001239DE0336820685A
:10378000191D3160060601D51D6803E04506FBD50D
:10379000B3F90050002D03DA2D236D4284F8433035
:1037A00059480A2310E021683368080653F8045B7F
:1037B00002D4490648BFADB26F2F5348336059D188
:1037C0000823002184F843106668A660002E05DBFC
:1037D00021682E4321F0040121604DD01646B5FB2F
:1037E000F3F103FB1157C75D06F8017D2F46BB427D
:1037F0000D46F4D9082B0BD12368DF0708D52369C0
:1038000061689942DEBF302306F8013C06F1FF36BD
:10381000921B2261CDF800A04B4603AA21464046E8
:10382000FFF7E8FE01304CD14FF0FF3004B0BDE8A7
:10383000F087236843F0200323603448782784F816
:103840004570236831681F0651F8045B02D45F0697
:1038500048BFADB23160D90744BF43F020032360B5
:103860001DB11023ADE72848E9E7236823F02003C2
:103870002360F6E70A23A4E71646BBE7336825680A
:103880006169181D30602E061B6801D5196002E0C1
:103890006806FBD51980002323611646BAE7336812
:1038A0001A1D32601E68626800213046FCF780FCF9
:1038B00008B1801B606063682361002384F8433093
:1038C000A8E72369324649464046D0470130ABD08D
:1038D00023689B0713D4E068039B9842B8BF18463F
:1038E000A4E70123324649464046D04701309BD0E9
:1038F0000135E36803995B1AAB42F2DCEBE7002584
:1039000004F11906F5E700BFB46E0008C56E0008A3
:103910000EB410B59DB01FAB029006906FF0004141
:103920000A48079104910A4953F8042B0591002491
:1039300002A9006801931B9401F0F0F8029B1C702F
:103940001DB0BDE8104003B0704700BF1800002054
:103950000802FFFF0EB470B59DB021AC00254FF4F6
:10396000017254F8046BADF814201B950290069078
:10397000FCF76EFC0B4B039007900B480B934FF634
:10398000FF73ADF816303246234602A900680F9542
:103990001495019401F018FA1DB0BDE8704003B011
:1039A000704700BFCF3900081800002010B50C4642
:1039B000B1F90E1000F032F90028ABBF636DA38996
:1039C0001B1823F48053ACBF6365A38110BD002096
:1039D00070472DE9F0411F468B89DB0505460C46F3
:1039E000164605D5B1F90E100223002200F004F9A5
:1039F000A389B4F90E1023F48053A38132463B46C9
:103A00002846BDE8F04100F01BB910B50C46B1F9ED
:103A10000E1000F0F1F8B4F90C30421C0BBF23F487
:103A2000805343F48053A381A38118BF606510BD08
:103A3000B1F90E1000F042B9002310B50446C0E9F8
:103A40000033C0E90433836081814366C2818361AE
:103A5000194608225C3000F0B3F80D4B63620D4B41
:103A6000A3620D4BE3620D4B23630D4B24629C421A
:103A700006D003F16802944202D0D0339C4205D1B3
:103A800004F15800BDE8104000F010B910BD00BFAF
:103A9000AD390008D33900080B3A0008313A000864
:103AA00028040020024A0349034800F06BB800BF15
:103AB0000C000020295600081C00002041680C4B17
:103AC000994210B5044601D001F0AEFDA168094B42
:103AD000994202D0204601F0A7FDE168064B9942C9
:103AE00004D02046BDE8104001F09EBD10BD00BFCF
:103AF0002804002090040020F80400200C4B0D4AFC
:103B00000D4810B504211A600022FFF795FF0A4BFB
:103B100001221C46092103F16800FFF78DFF04F123
:103B2000D0000222BDE810401221FFF785BF00BF80
:103B300060050020A53A000828040020014800F094
:103B4000B6B800BF65050020014800F0B1B800BF5D
:103B50006505002010B50446FFF7F0FF236A1BB18E
:103B6000BDE81040FFF7F0BF044B2362044B1B6815
:103B7000002BF5D1FFF7C2FFF2E700BFBD3A000806
:103B8000600500202DE9F8430746884614460026C4
:103B9000D4E90195B9F1010905D52468002CF7D1C4
:103BA0003046BDE8F883AB89012B07D9B5F90E3053
:103BB000013303D029463846C04706436835E9E754
:103BC00002440346934200D1704703F8011BF9E712
:103BD00010B50139034632B111F8014F03F8014B1A
:103BE000013A002CF7D11A440021934200D110BDB4
:103BF00003F8011BF9E7000038B5074D04460846F5
:103C0000114600222A601A4602F080FD431C02D1B0
:103C10002B6803B1236038BD6805002038B5074D17
:103C200004460846114600222A601A4602F076FD34
:103C3000431C02D12B6803B1236038BD6805002006
:103C400038B5074D04460846114600222A601A4638
:103C500002F07AFD431C02D12B6803B1236038BD0A
:103C60006805002070B50D4B0D4D5B1B9C100026A8
:103C7000A64209D102F0EEFE0A4D0B4B5B1B9C10D5
:103C80000026A64205D170BD55F8043B9847013681
:103C9000EEE755F8043B98470136F2E74C7200080E
:103CA0004C7200084C720008507200087047704750
:103CB00070470000004870475801002038B5064D95
:103CC0000023044608462B6002F0F8FC431C02D196
:103CD0002B6803B1236038BD680500200A44914277
:103CE00000F1FF3300D1704710B511F8014B03F814
:103CF000014F9142F9D110BD2DE9F74F03690C69CD
:103D0000A34207467EDB013C01F11408A30000F149
:103D10001405009305EB8403019358F8243055F8FB
:103D2000242001339A4208EB8409B2FBF3F62ED328
:103D30004FF0000AC446AE46D3465CF8043B98B246
:103D400006FB00A0020C1B0C06FB0323DEF8002080
:103D500080B292B2121A5A44DEF800004FEA134AB7
:103D60009BB2C3EB224303EB104392B242EA0342FD
:103D7000E1454EF8042B4FEA234BDED2009BEB5873
:103D80002BB9019B043B9D421A462FD33C61384618
:103D900001F0FAFE002825DB2946002058F8042B04
:103DA000D1F800C01FFA82FE1FFA8CF3A3EB0E03BA
:103DB0000344120CC2EB234202EB1C429BB243EAC7
:103DC0000243C14541F8043B4FEA2240E6D255F890
:103DD000242005EB840322B9043B9D421A460BD3F1
:103DE0003C610136304603B0BDE8F08F1268043BF9
:103DF000002ACBD1013CC6E71268043B002AEFD170
:103E0000013CEAE70020EEE72DE9F04F99B08DED97
:103E10000E0B0C92C269229C0A9157EC106B8146E2
:103E2000139382B9102001F04DF90246C9F81C0025
:103E300020B9AD4BEF21AD4802F036F90023C0E9BF
:103E400001330360C360116859B152684A600123AD
:103E500093408B60484601F059FCD9F81C30002291
:103E60001A60B7F10008B5BF012300232360236067
:103E70009F4BBCBF28F00048CDF83C8033EA0803D4
:103E80001AD1139AC8F3130842F20F7358EA0608BE
:103E9000136000F06C85239B53B9964B21E0964B41
:103EA00000930833239A1360009819B0BDE8F08F8F
:103EB000904B00930333F5E79DED0E7B002251EC10
:103EC000170B00238DED067BFCF7EEFD824650B10B
:103ED000139A01231360239B13B1239A874B13601A
:103EE000874B0093E0E79DED060B16AA17A94846FD
:103EF00001F0FEFE5FEA1854169D019079D0079BF1
:103F0000CDF850A0C3F31303DDE9060143F07F535E
:103F100043F44013A4F2FF3419460022794BFCF716
:103F2000A3F96BA3D3E90023FCF756FB6AA3D3E9FB
:103F30000023FCF79BF9064620460F46FCF7E2FA01
:103F400067A3D3E90023FCF747FB02460B46304644
:103F50003946FCF78BF906460F46FCF7EDFD0022CB
:103F60008046002330463946FCF7A8FD48B140465C
:103F7000FCF7C8FA32463B46FCF796FD08B908F153
:103F8000FF38B8F1160F51D85F4B03EBC803D3E9E4
:103F90000023DDE90601FCF791FD002848D008F177
:103FA000FF38002312932D1B6B1E089343BF002381
:103FB000C5F1010708930027B8F1000F3ADB089B11
:103FC000CDF8348043440893002309930A9B092BBE
:103FD00064D8052BC4BF043B0A930A9BA3F10203D8
:103FE000CCBF00240124032B64D8DFE803F0535531
:103FF000362B179C2C4404F23243202BC1BFC3F153
:10400000400308FA03F804F2124326FA03F3D6BF7A
:10401000C3F1200348EA030006FA03F0FCF762FA52
:104020000122A1F1F873013C149275E70123B9E76D
:104030001290B8E7C8F1000309930023A7EB080723
:104040000D93C3E701230B930C9B4344059301336A
:10405000012B0493B8BF012306E001230B930C9BB3
:10406000002B2ADDCDE90433D9F81C0000210422FD
:1040700002F114059D4201F1010623D94160484631
:1040800001F006FB0090002842D1204B024640F28E
:10409000AF11D0E60023E1E70023D4E70124002399
:1040A000CDE90A344FF0FF33CDE904330022122367
:1040B0000C92D9E701230B93F4E70123CDE90433F4
:1040C0001A46F5E752003146D2E700BFAFF3008051
:1040D00061436F63A787D23FB3C8608B288AC63F0E
:1040E000FB799F501344D33FE36E0008FA6E00083B
:1040F0000000F07FDF6E0008D66E0008946F0008A5
:10410000936F00080000F83F787000085B6F0008AC
:10411000D9F81C30009A1A60049B0E2B00F2A18083
:10412000002C00F09E80B8F1000F36DD9E4B08F0A9
:104130000F0203EBC20318F4807FD3E900AB4FEA10
:10414000281516D0994BDDE90601D3E90823FCF7C1
:104150006DFBCDE9020105F00F050324934E75B9FF
:10416000DDE9020152465B46FCF760FB82468B4666
:104170002DE09DED067B02248DED027BEEE7E90745
:1041800008D550465946D6E90023FCF725FA0134F4
:1041900082468B466D100836E1E700F0AD80C8F12D
:1041A0000005814B814E05F00F0203EBC203D3E9FA
:1041B0000023DDE90601FCF70FFA2D1182468B463C
:1041C00000230224002D40F08C80002BCED1129BC6
:1041D000002B00F09580764B002250465946FCF7A4
:1041E0006DFC002800F08C80049B002B00F0888080
:1041F000059B002B35DD08F1FF33029350465946ED
:104200006C4B0022FCF7E8F9059E82468B46013490
:104210002046FCF777F952465B46FCF7DDF9664B22
:104220000022FCF723F80446A1F15075CDE91045B2
:10423000002E69D1614B002250465946FCF714F814
:1042400022462B4682468B46FCF756FC002840F05F
:104250009482224605F1004350465946FCF72EFC55
:1042600020BB179B002BC0F26081B8F10E0F00F34A
:104270005C814D4B03EBC803D3E900AB0C9B002BD7
:1042800080F2EE80049B002B00F3EA800ED14B4BB2
:10429000002250465946FCF79FF902460B46DDE9DD
:1042A0000601FCF715FC002800F06A8200252C4668
:1042B0000C9B009EDB430293274600242946484678
:1042C00001F024FA002F00F0C1802CB1BC4203D0D1
:1042D0002146484601F01AFA3946484601F016FAD6
:1042E000B4E0EA0705D5D6E90023FCF775F90134F7
:1042F00001236D10083665E7DDE906AB022466E7A9
:10430000049ECDF8088083E7274B03EBC60353E9EF
:1043100002010B9B002B55D002460B46002028497A
:10432000FCF784FADDE91023FBF79EFF009BCDE943
:1043300010019D191E4659465046FCF7FDFB0446E8
:10434000FCF7E0F802460B4650465946FBF78CFF57
:104350003034DDE9102306F8014B82468B46FCF72A
:10436000ADFB002872D152465B4611490020FBF795
:104370007BFFDDE91023FCF7A1FB002840F0B680AD
:10438000AE423FF46EAFDDE910010A4B0022FCF7AC
:1043900023F9084BCDE91001002250465946FCF79D
:1043A0001BF982468B46C6E77870000850700008FB
:1043B0000000F03F0000244000001C4000001440BA
:1043C0000000E03FDDE91023FCF706F9009B009DAB
:1043D000CDE910013344159359465046FCF7ACFB28
:1043E0000446FCF78FF830340B46024659465046D7
:1043F000FBF73AFF05F8014B159B9D4282468B4621
:1044000027D1009B0022DDE910011E44B34BFBF7CE
:104410002DFF02460B4650465946FCF76DFB00281F
:1044200064D1DDE91023AD490020FBF71DFF0246F2
:104430000B4650465946FCF741FB00283FF411AFAC
:10444000334616F8012D302AFAD01E46DDF80880D2
:104450003AE0A34B0022FCF7BFF882468B46BBE74D
:10446000009E52465B46DDE90601FCF7DFF9FCF7EA
:1044700063FB0746FCF746F852465B46FCF7ACF890
:1044800002460B46DDE90601FBF7EEFE07F1300CB4
:10449000009C06F801CBA6EB040C049C6445024684
:1044A0000B4633D1FBF7E2FE52465B4604460D460F
:1044B000FCF722FBC0B952465B4620462946FCF772
:1044C000F3FA08B1FB070FD40199484601F01EF931
:1044D0000023139A337008F101031360239B002B10
:1044E0003FF4E2AC1E60DFE4CDF8088033461E46A0
:1044F00013F8012D392A06D1009A9A42F7D1029A6F
:1045000001320292302201321A709FE7744B00226E
:10451000FCF762F802460B46CDE906230022002391
:10452000FCF7C2FA00289CD0CEE70B9A002A00F0D4
:10453000E3800A9A012A00F3C280149A002A00F04C
:10454000BA8003F23343099D3E46089A01211A447A
:1045500048461F44089201F08DF9044656B1089B65
:10456000002B07DDB342089AA8BF3346FF1AF61A9C
:10457000D31A0893099B0BB30B9B002B00F0C3804D
:10458000002D00F0BD8021462A46484601F032FA4F
:10459000019A01460446484601F082F90199824693
:1045A000484601F0B3F8099B5B1B099300F0AE800D
:1045B000099A5146484601F01DFA019001214846EA
:1045C00001F058F90D9B0546002B00F0D7811A46E3
:1045D0000146484601F00EFA0A9B012B054600F3FE
:1045E0009D800E9B002B40F094800F9BC3F3130320
:1045F000002B40F08E800F9B23F000431B0D1B050A
:10460000002B00F08980089B0133013708934FF09D
:10461000010A0D9B002B00F0B7812B6905EB83038A
:10462000186901F0DBF8C0F12000089B184410F075
:104630001F007ED0C0F12003042B72DD089BC0F167
:104640001C000344074406440893002F05DD01992C
:104650003A46484601F02AFA0190089B002B05DDF6
:1046600029461A46484601F021FA0546129B002BBE
:1046700061D00198294601F087FA00285BDA08F139
:10468000FF330293019900230A22484601F060F8A3
:104690000B9B0190002B00F07981002321460A2218
:1046A000484601F055F8059B002B044672DC0A9B36
:1046B000022B49DC6EE0169BC3F1360343E7049BF3
:1046C0005D1E099BAB420DDB5D1B049B002BBFF6FF
:1046D0003BAF049BFE1A002337E700BF0000E03F1A
:1046E00000002440099B0D9A0995EB1A1A440D927B
:1046F000049B3E46002528E7099D0B9C3E462DE77E
:10470000DDF804A054E7099A019953E7CDF804A015
:1047100054E74FF0000A7CE79A467AE74FF0000A28
:104720007BE792D0089A1C331A441F441E44089217
:104730008BE70346F6E7049BCDF80880002B23DCCB
:1047400005930A9B022B21DD059B002B7FF4B0AD66
:1047500029460522484600F0FBFF01460546019820
:1047600001F012FA00287FF7A3AD009E312306F86E
:10477000013B029B013302939EE535462C46F4E74C
:10478000049DCDF80880F9E7049B05930B9B002B53
:1047900000F00081002E05DD21463246484601F03A
:1047A00085F90446BAF1000F5AD06168484600F016
:1047B0006FFF064628B9824B024640F2EF21FFF711
:1047C0003ABB22690232920004F10C010C30FFF76F
:1047D00085FA01223146484601F068F90746009BF8
:1047E000009A03F1010B059B134406930E9B03F003
:1047F000010308930BF1FF33294601980493FFF757
:104800007BFA2146059000F1300A019801F0BCF9CD
:104810003A4680462946484601F0D2F9C268064623
:1048200002BB0146019801F0AFF902463146484605
:10483000099200F06BFFDDE9092342EA0301089BBE
:1048400019435E4610D1BAF1390F2BD0B8F1000FE1
:1048500002DD059B03F1310A049B83F800A02DE5DE
:104860002746BCE70122E1E7B8F1000F06DB0A9B0F
:1048700048EA0308089B58EA030820D1002AEBDD28
:1048800001990122484601F011F92946019001F0F1
:104890007BF9002803DCDFD11AF0010FDCD0BAF17C
:1048A000390FD6D1049A3923137033461E46013B83
:1048B00016F8012C392A52D001321A70FEE4002A6F
:1048C00007DDBAF1390FEDD0049A0AF10103137034
:1048D000F4E4069B0BF801AC5B452AD00199002358
:1048E0000A22484600F034FFBC4201904FF000031A
:1048F0004FF00A022146484606D100F029FF04463F
:1049000007460BF1010B75E700F022FF394604461C
:1049100000230A22484600F01BFF0746F1E7059BEB
:104920005E1E002B009BD8BF00265A1C274616444B
:10493000002401990122484601F0B8F82946019067
:1049400001F022F90028B0DC02D11AF0010FACD13D
:1049500033461E4613F8012D302AFAD0AEE4009AF1
:104960009A42A3D1029B013302933123AFE7239BE9
:10497000002B7FF494AA134BFFF7B3BA0A9B012BC9
:104980007FF72FAEDDF834A001204EE6059B002B0B
:104990007FF7D7AE009E01982946FFF7ADF900F1E9
:1049A000300A009B06F801ABF21A059B9342B6DD74
:1049B000019900230A22484600F0CAFE0190EAE766
:1049C0005B6F0008D66E000838B50546002941D057
:1049D00051F8043C0C1F002BB8BFE41800F04CFE4B
:1049E0001D4A136833B9636014602846BDE8384037
:1049F00000F048BEA34208D9206821188B4201BFAD
:104A000019685B6809182160EDE71A465B680BB10D
:104A1000A342FAD911685018A0420BD12068014472
:104A2000501883421160E0D118685B6853600844F5
:104A30001060DAE702D90C232B60D6E72068211832
:104A40008B4204BF19685B68636004BF091821606A
:104A50005460CAE738BD00BF700500202DE9F0475B
:104A60008E681F46BE4282460C469046334653D857
:104A7000B1F90C0010F4906F2BD0656923680969B7
:104A800005EB4505A3EB010905EBD5757B1C6D1006
:104A90004B44AB422A4684BF1D462A46430527D5D0
:104AA0001146504600F038FB064658B321694A4685
:104AB000FFF714F9A38923F4906343F08003A381E3
:104AC000266165614E44A5EB09052660A5603E465A
:104AD0003B461F4620683A46414601F0B5FAA368B6
:104AE0009B1BA36023683B4423600020BDE8F08744
:104AF000504601F08FF906460028E1D12169504661
:104B0000FFF762FF0C23CAF80030A38943F040038B
:104B1000A3814FF0FF30E9E73E46DBE72DE9F04F98
:104B200098468B891B069DB007460D46144610D546
:104B30000B6973B9402100F0EFFA2860286130B9A1
:104B40000C233B604FF0FF301DB0BDE8F08F4023D9
:104B50006B610023099320238DF82930CDF80C8058
:104B60003023DFF89C818DF82A304FF0010923466D
:104B70009A4613F8012B0AB1252AF9D1BAEB040B96
:104B80000BD05B46224629463846FFF767FF0130C7
:104B900000F0A780099A5A4409929AF80030002B35
:104BA00000F09F8000234FF0FF32CDE905230AF18A
:104BB000010A049307938DF853301A935446052243
:104BC00014F8011B4E48FBF7F3FA049AD8B9D00643
:104BD00044BF20238DF85330110744BF2B238DF899
:104BE00053309AF800302A2B15D0079A54460020EB
:104BF0004FF00A0C214611F8013B303B092B4BD9F1
:104C0000B0B1079214E0A0EB080309FA03F31343D1
:104C10000493A246D2E7039B191D1B680391002B46
:104C2000BBBF5B4242F0020207930793B8BF0492F6
:104C300023782E2B0AD163782A2B32D1039B1A1D9D
:104C40001B68039243EAE37302340593DFF8C0A0C4
:104C5000217803225046FBF7ABFA38B1049BA0EB56
:104C60000A004022824013430134049314F8011BCC
:104C700024488DF828100622FBF79AFA002836D02F
:104C8000214B1BBB039B073323F00703083303931C
:104C9000099B334409936AE70CFB02320C4601205E
:104CA000A8E700230134059319464FF00A0C20466B
:104CB00010F8012B303A092A03D9002BC6D00591F0
:104CC000C4E70CFB012104460123F0E703AB00938A
:104CD0002A460E4B04A93846FEF764FA421C0646E3
:104CE000D6D1AB895B063FF52DAF09982CE703AB16
:104CF00000932A46054B04A93846FEF7E9FCEDE788
:104D00006C6F0008766F0008A53100085D4A000846
:104D1000726F000838B54B1C144603D14FF0FF35B5
:104D2000284638BD938923F020039381636B526832
:104D3000CDB28BB1A36B934208DD23685A1E22606B
:104D400003F8015C636801336360E9E7214601F021
:104D500027F80028F1D0E1E72169236851B1994291
:104D600008D213F8011CA94204D1013B013223608F
:104D70006260D5E7C4E90F3204F14403636303239F
:104D8000A363234603F8465F23600123DCE710B5E5
:104D90000C46496B69B104F14403994201D0FFF715
:104DA00013FE236C63600020606313B1E36B236028
:104DB00010BD2369236000236360A38943F02003AF
:104DC000A3814FF0FF30F3E72DE9F04FADF5237DE0
:104DD00041AC0D460021C4E9031101A96161AF494D
:104DE000C4F87C11DFF8C4B2AD49C4F8801107469D
:104DF000E846009392F80090B9F1000F00F060814E
:104E00001BF8093013F0080302F101061BD06B6890
:104E1000002B10DD2B681A781BF80220120701D432
:104E20003246E7E72269013222616A680133013ABA
:104E30006A602B60EBE7D4F8803129463846984702
:104E40000028E7D0ECE7B9F1250F40F0848023601B
:104E5000A36053782A2B02BF1023961C23600A22DA
:104E6000B2461AF8011BA1F13003092B1DD98D4B55
:104E700003221846FBF79CF938B18A4B2268C01A06
:104E80000123834013432360564616F8013B782BD9
:104E900006D8572B10D8252B5DD057D8002B76D0AD
:104EA0000323A3610A23636089E0A36802FB031163
:104EB0003039A1605646D3E7A3F15802202AEFD833
:104EC00001A151F822F000BF9D4F0008A14E00083B
:104ED000A14E0008F94F0008A14E0008A14E00089D
:104EE000A14E0008A14E0008A14E0008A14E0008E6
:104EF000A14E00080F500008F54F0008534F00085E
:104F0000534F0008534F0008A14E0008AF4F000850
:104F1000A14E0008A14E0008A14E0008A14E0008B5
:104F20001F500008B74F0008954F0008A14E000819
:104F3000A14E00081B500008A14E0008F54F0008C4
:104F4000A14E0008A14E00089D4F0008453B022BD2
:104F5000A6D8052332E06B68002B0DDD2B681A788C
:104F60004A4540F0AD8001336A682B602369013AFD
:104F700001336A60236153E7D4F88031294638460B
:104F800098470028EAD0E068002840F091804FF070
:104F9000FF3091E0226842F020022260226842F451
:104FA0000072226010226E2B626006D801E000239E
:104FB0006360032302E0082363600423A3616B683A
:104FC000002B3CDD2368590605D42B681A781BF8A2
:104FD000022012073BD4A369022B4BDC43462A462E
:104FE0002146384600F018F9012869D002287FF4DC
:104FF00017AFC8E70A22D6E7314601A800F058FAF1
:10500000236843F04003236006460123D6E7236864
:1050100043F0400323600023D0E70223CEE720685B
:10502000C3063FF5FDAED8F800302269191DC8F857
:1050300000101B68C0074CBF1A801A60F0E6D4F855
:1050400080312946384698470028BBD09BE7226923
:10505000013222616A68013A002A6A6002DD013386
:105060002B60B2E7D4F880312946384698470028AB
:10507000ABD088E7042B06DC43462A462146384657
:1050800000F024F9B0E7084B002B3FF4C9AE4346CB
:105090002A4621463846AFF30080A5E7154D0008A3
:1050A0008F4D0008726F0008000000004171000879
:1050B000AB895B063FF56BAF0DF5237DBDE8F08F47
:1050C000E068F9E7024B0146186800F025B800BF18
:1050D0001800002070B50F4E0C463168054611B916
:1050E00000F0CCFF30602146284600F0C7FF431C8B
:1050F00003D14FF0FF34204670BDC41C24F00304DC
:10510000A042F8D0211A284600F0B8FF0130F2D1B1
:10511000EFE700BF6C0500202DE9F843CD1C25F01A
:10512000030508350C2D38BF0C25002D064601DB84
:10513000A94204D90C2333600020BDE8F883DFF8CE
:10514000D48000F099FAD8F800301C4644BB2946B8
:105150003046FFF7BFFF431C044658D1D8F8004043
:105160002746002F43D1002C4BD0236839463046C8
:1051700004EB030900F082FF814542D121686D1ADA
:1051800029463046FFF7A6FF01303AD023682B446A
:105190002360D8F800305A6862BBC8F800700FE08E
:1051A0002268521B20D40B2A17D96119A34225600B
:1051B00018BF5960636808BFC8F8001062514B609F
:1051C000304600F05FFA04F10B00231D20F00700C9
:1051D000C21A1CBF1B1AA350AFE76268A3420CBFE0
:1051E000C8F800205A60EBE723466468AEE73C4607
:1051F0007F68B6E71A465B68A342FBD10023536081
:10520000DEE70C233360304600F03CFA94E705609B
:10521000D6E700BF700500202DE9F84315468A68DF
:1052200080460C4632B98A69002A14BF4FF0FF321B
:1052300001228A602268DFF89090D1065FBF1A6869
:10524000111D196016680027A06988B1012807D1CF
:105250002B681A7863699B5C53B9002F31D022E028
:10526000022820D12B681B7819F803301B071AD4A9
:105270002368DA065EBF2B681B7806F8013B2A68B4
:105280006B6801322A60A268013B013A6B6001370A
:10529000A26042B1002BD7DCD4F8803129464046C9
:1052A00098470028D0D0236813F0100305D1E26896
:1052B0000132E260A26902B1337023693B44236189
:1052C0000020BDE8F88300BF417100082DE9F04FD0
:1052D0009846734B0C468246164693E8070087B003
:1052E00003AB83E807006F4BA1696F4A032908BF2E
:1052F0001A46A36801925A1EB2F5AE7F88BF6FF4BA
:10530000AE75274682BF03EB050940F25D13A3602B
:1053100057F81C3B43F4506398BF4FF000092360DB
:105320003D464FF0000B316803AB097853F82B0072
:105330000222FAF73DFF28B3BBF1010F58D1626892
:105340002AB92268082142F4007261602260226852
:1053500022F4A0622260A268511EA16092B132685C
:10536000511C3160127805F8012B7268013A002A4D
:10537000726007DCD4F880213146504690470028FF
:1053800040F083800BF1010BBBF1030FCBD16168BF
:1053900009B90A216160454B6069591A00F088F823
:1053A0004FF0000BA3682268002B3DD03168606984
:1053B00091F800C010F80C00002835D0BCF1300F77
:1053C00024D1100522D50BF1010BB9F1000F03D048
:1053D000013309F1FF39A3607368013B002B73604F
:1053E0001BDD336801333360A368013BA360D9E759
:1053F000BBF1020FAFD1226802F4C061B1F5007FAA
:10540000C5D11021616042F48072A3E722F41062DA
:1054100022600B7805F8013BDEE7D4F88031314695
:10542000504698470028DFD02368DB050DD5BD42E4
:1054300009D915F8011CD4F87C31324650469847FA
:1054400005F1FF394D46BD4227D0226812F0100207
:1054500012D12A706368019E39465046B047D8F889
:10546000003021681A1DC8F800208E061B680FD571
:105470001860E3680133E3602369ED1B5D442B444E
:105480002361002007B0BDE8F08F4FF0000BCBE7A1
:10549000CA074CBF18801860EBE70120F2E700BF95
:1054A000706A0008655F0008456000088D6F00089D
:1054B00070B50B7804465E2B0BBF4B784A1C8A1CD8
:1054C000002108BF0121013804F1FF0500F8011F88
:1054D000A842FBD10BB9501E70BD81F00101E1540F
:1054E0001046024612F8015B2D2D05D05D2D16D019
:1054F000002DF1D02B46F2E746785D2EFAD0B3426C
:10550000F8DC02301A4601329642A154FBDCF21A52
:10551000013AB342A8BF002201331344E1E7104629
:10552000DAE70000B1F90C202DE9F0411607054635
:105530000C4651D44B68002B02DC0B6C002B49DD70
:10554000E66A002E46D0002312F480522F682B60AA
:1055500031D0626DA389590705D56368D21A636B90
:105560000BB1236CD21A0023E66A216A2846B047A1
:10557000421CB4F90C3006D129681D2946D8294AA5
:10558000CA40D60742D500226260D904226922604F
:1055900004D5421C01D12B6803B96065616B2F6093
:1055A000C1B104F14403994202D02846FFF70CFA36
:1055B000002363630EE0216A01232846B0470246B8
:1055C000501CC7D12B68002BC4D01D2B01D0162B2B
:1055D0001AD12F6000201EE00F69002FFAD0930728
:1055E0000E6808BF4B690F6018BF0023A6EB0708C1
:1055F0008B60B8F1000FEDDD216AA66A43463A469A
:105600002846B047002808DCB4F90C3043F04003CA
:10561000A3814FF0FF30BDE8F0810744A8EB0008FC
:10562000E7E700BF0100402038B50B6905460C468E
:1056300013B90025284638BD18B1036A0BB9FEF727
:1056400089FAB4F90C30002BF3D0626ED00704D481
:10565000990502D4A06DFEF72AFB28462146FFF7E4
:1056600061FF636EDA070546E4D4A3899B05E1D4A4
:10567000A06DFEF71DFBDDE70148FEF718BB00BF7C
:10568000640500200148FEF713BB00BF640500203D
:1056900070B5C46905460E4684B91020FFF712FDA7
:1056A0000446E86128B90246164B17486B2100F002
:1056B000FBFC0023C0E901330360C360E36853B916
:1056C00021220421284600F00DFDEB69E060DB6833
:1056D0000BB9002070BD53F8260030B1026843F8C2
:1056E00026200023C0E90333F4E7012101FA06F480
:1056F000621D9200284600F0F5FC0028E9D0C0E9C0
:105700000164EEE7E36E0008986F000870B5C669A3
:1057100005460C4676B91020FFF7D4FC0246E86136
:1057200020B9094B09488F2100F0BEFCC0E9016691
:105730000660C6603CB1EB696268DB6853F8221012
:10574000216043F8224070BDE36E0008986F0008A6
:105750002DE9F0410D6907460C461E4601F1140C77
:105760000020DCF8003099B202FB01611E0C0B0C2A
:1057700002FB063389B2013001EB034185424CF84C
:10578000041B4FEA1346ECDC0EB3A368AB4219DCF2
:10579000616838460131FFF77BFF804628B9024631
:1057A0000C4B0D48BA2100F07FFC2269023204F153
:1057B0000C0192000C30FEF791FA21463846FFF7B3
:1057C000A5FF444604EB850301355E612561204653
:1057D000BDE8F0815B6F0008986F0008B0F5803F6E
:1057E000034636BF030400201020B3F1807F3CBF86
:1057F0001B020830B3F1805F3CBF1B010430B3F1E2
:10580000804F3CBF9B000230002B05DB13F0804F24
:1058100000F1010008BF202070470368024613F022
:1058200007000BD0D90721D4980749BF5B089B0814
:10583000012013605CBF13600220704799B209B960
:105840001B0C1020D9B209B908301B0A190704BF74
:105850001B090430990704BF9B080230D90703D401
:105860005B0800F1010003D013607047002070470F
:105870002020704710B50C460121FFF709FF0246B2
:1058800028B9054B054840F2451100F00DFC0123F5
:105890004461036110BD00BF5B6F0008986F000892
:1058A0002DE9F04FD1F81090D2F810A0D14585B075
:1058B0008846144604DB53460C46CA469046994631
:1058C000A36861680AEB0906B342B8BF0131FFF76C
:1058D000DFFE30B90246454B45484FF4B17100F048
:1058E000E3FB00F1140505EB86072B460022BB42C3
:1058F0001FD304F1140C08F114010CEB8A0301EB23
:10590000890202921A1B153A22F0030215349C42B6
:1059100088BF00220192029A03918A420CD8002E7D
:1059200003DD57F8043D002B5DD0066105B0BDE8EE
:10593000F08F43F8042BDAE7B1F800A0BAF1000FBA
:1059400024D0E046A9464FF0000E58F8042BD9F8B1
:1059500000401FFA82FBA4B20AFB0B444FEA124B31
:10596000D9F8002074444FEA124E0AFB0BE202EB16
:105970001442A4B244EA0244434549F8044B4FEAB6
:10598000124EE2D8019AAA18C2F804E0039AB2F8BB
:1059900002800431B8F1000F23D02A68E646914610
:1059A000AA464FF0000BBEF8004008FB04B404EB1D
:1059B000194492B242EA04424AF8042B5EF8042BDE
:1059C000DAF800904FEA124B1FFA89F208FB0B221B
:1059D00002EB144273454FEA124BE4D8019C2C1998
:1059E0006260043597E7013E99E700BF5B6F0008EE
:1059F000986F00082DE9F843174612F0030280461D
:105A00000D4607D0264C013A002354F82220FFF718
:105A10009FFE0546BF103FD0D8F81C4094B9102017
:105A2000FFF750FB0446C8F81C0030B902461D4B76
:105A30001D4840F2B31100F037FB0023C0E90133E9
:105A40000360C360A66846B940F271214046FFF783
:105A500011FF0023A060064603602C464FF00009AA
:105A600007F001037F1053B1294632464046FFF745
:105A700017FF214605464046FFF748FE67B13068EC
:105A800038B9324631464046FFF70AFF3060C0F869
:105A9000009006462C46E3E72846BDE8F88300BFA1
:105AA00040700008E36E0008986F00082DE9F84F79
:105AB0000C464968236903EB6218A368074615463C
:105AC0004FEA621A08F101094B450BDB3846FFF734
:105AD000DFFD064648B90246294B2A484FF4EF71CC
