:020000040800F2
:100000000000022085180008990300089B030008DF
:100010009D0300089F030008A103000800000000E2
:10002000000000000000000000000000A303000822
:10003000A503000800000000A7030008A9030008AA
:10004000D5180008D5180008D5180008D5180008DC
:10005000D5180008D5180008D5180008D5180008CC
:10006000D5180008D5180008D5180008D5180008BC
:10007000D5180008D5180008D5180008D5180008AC
:10008000D5180008D5180008D5180008D51800089C
:10009000D5180008D5180008D5180008D51800088C
:1000A000D5180008D5180008D5180008D51800087C
:1000B000D5180008D5180008D5180008D51800086C
:1000C000D5180008D5180008D5180008D51800085C
:1000D000D5180008D5180008D5180008D51800084C
:1000E000D5180008D5180008D5180008D51800083C
:1000F000D5180008D5180008D5180008D51800082C
:10010000D5180008D5180008D5180008D51800081B
:10011000D5180008D5180008B1030008D518000844
:10012000D5180008D5180008D5180008D5180008FB
:10013000D5180008D5180008D5180008D5180008EB
:10014000D5180008D5180008D5180008D5180008DB
:10015000D5180008D5180008D5180008D5180008CB
:10016000D5180008D5180008D5180008D5180008BB
:10017000D5180008D5180008D518000800000000A0
:08018000D5180008D51800088D
:1001880053B94AB9002908BF00281CBF4FF0FF31F6
:100198004FF0FF3000F00CB8ADF1080C6DE904CE5B
:1001A80001F0C2FBDDF804E0DDE9022304B070478A
:1001B800704700BF0348044B834202D0034B03B18E
:1001C800184770470C0000200C00002000000000B9
:1001D8000548064B1B1AD90F01EBA301491002D0A1
:1001E800034B03B1184770470C0000200C00002097
:1001F8000000000010B5064C237843B9FFF7DAFF7A
:10020800044B13B10448AFF300800123237010BDE1
:100218000C00002000000000281C000808B5054B51
:100228001BB105490548AFF30080BDE80840FFF75A
:10023800CFBF00BF0000000010000020281C0008ED
:1002480072B6FEE710B594B008AC30220021204603
:1002580001F03DFB00230393049305930693079352
:100268000193184A116C41F080511164126C02F02C
:1002780080520192019A0293134A116841F4804115
:100288001160126802F480420292029A02220892D5
:1002980001220B9210220C920E93204600F0A8F82F
:1002A80060B90F23039300210491059106910791EA
:1002B80003A800F0EDFA18B914B010BDFFF7C0FF9D
:1002C800FFF7BEFF003802400070004008B500F09C
:1002D8002DFDFFF7B7FF00F00BF800F05DFD00F013
:1002E800E5FD0021014801F0D9F9FEE7740000207E
:1002F8002DE9F04188B003AD0024039404940594DB
:100308000694079401941F4B1A6B42F001021A637A
:100318001A6B02F001020192019A02941A6B42F0E0
:1003280008021A631B6B03F008030293029B164F23
:1003380022464FF47041384600F050FC4FF0010857
:10034800CDF80C80049402230593104E29463046BC
:1003580000F04EFB4FF470430393CDF810800594E2
:1003680006942946384600F043FB4FF40073039384
:10037800049405942946304600F03AFB08B0BDE8DD
:10038800F08100BF00380240000C0240000002402B
:10039800FEE7FEE7FEE7FEE7FEE7704770477047B7
:1003A80008B500F0DDFC08BD08B5024800F0C1FE44
:1003B80008BD00BF2C00002082B0002100910B4B2B
:1003C8005A6C42F480425A645A6C02F48042009299
:1003D800009A01911A6C42F080521A641B6C03F067
:1003E80080530193019B02B0704700BF0038024060
:1003F800002800F0E08170B582B00446036813F06D
:10040800010F3BD09F4B9B6803F00C03042B2CD0AF
:100418009C4B9B6803F00C03082B21D06368B3F551
:10042800803F4FD0B3F5A02F52D0964B1A6822F4D4
:1004380080321A601A6822F480221A606368002BDE
:1004480050D000F099FC05468E4B1B6813F4003F12
:1004580014D100F091FC401B6428F5D90320B1E1C8
:10046800884B5B6813F4800FD8D0864B1B6813F455
:10047800003F03D06368002B00F09F81236813F0CE
:10048800020F54D07F4B9B6813F00C0F3ED07D4B6E
:100498009B6803F00C03082B33D0E368002B68D06B
:1004A800794B01221A6000F067FC0546754B1B6802
:1004B80013F0020F54D100F05FFC401B0228F5D95D
:1004C80003207FE16F4A136843F480331360B5E774
:1004D8006C4B1A6842F480221A601A6842F480321F
:1004E8001A60ABE700F048FC0546664B1B6813F43E
:1004F800003FC3D000F040FC401B6428F5D903201E
:1005080060E1604B5B6813F4800FC6D15D4B1B68DC
:1005180013F0020F03D0E368012B40F05081594AD1
:10052800136823F0F803216943EAC10313602368C1
:1005380013F0080F42D063696BB3534B0122C3F821
:10054800802E00F019FC05464E4B5B6F13F0020F2E
:1005580034D100F011FC401B0228F5D9032031E109
:10056800484A136823F0F803216943EAC10313607A
:10057800DDE7454B00221A6000F0FEFB0546414BC3
:100588001B6813F0020FD2D000F0F6FB401B0228C4
:10059800F5D9032016E13C4B0022C3F8802E00F069
:1005A800EBFB0546374B5B6F13F0020F06D000F0EC
:1005B800E3FB401B0228F5D9032003E1236813F06D
:1005C800040F77D02F4B1B6C13F0805F33D10023BF
:1005D80001932C4B1A6C42F080521A641B6C03F086
:1005E80080530193019B0125284B1B6813F4807FDE
:1005F80023D0A368012B34D0052B38D0214B1A6F98
:1006080022F001021A671A6F22F004021A67A3681F
:10061800002B3DD000F0B0FB06461A4B1B6F13F0C1
:10062800020F46D100F0A8FB801B41F288339842A4
:10063800F3D90320C6E00025D6E7144A136843F42B
:100648008073136000F098FB0646104B1B6813F488
:10065800807FCED100F090FB801B0228F5D90320C3
:10066800B0E0084A136F43F001031367CFE7054B67
:100678001A6F42F004021A671A6F42F001021A67F1
:10068800C5E700BF00380240000047420070004044
:1006980000F072FB0646524B1B6F13F0020F08D096
:1006A80000F06AFB801B41F288339842F3D903209B
:1006B80088E0EDB9A369002B00F08380484A92686E
:1006C80002F00C02082A51D0022B17D0454B002209
:1006D8001A6600F051FB0446414B1B6813F0007F7B
:1006E80042D000F049FB001B0228F5D9032069E03D
:1006F8003B4A136C23F080531364DBE7394B002229
:100708001A6600F039FB0546354B1B6813F0007F6D
:1007180006D000F031FB401B0228F5D9032051E038
:10072800E369226A1343626A43EA8213A26A52089F
:10073800013A43EA0243E26A43EA0263284A536001
:10074800284B01221A6600F017FB0446244B1B684D
:1007580013F0007F06D100F00FFB001B0228F5D92B
:1007680003202FE000202DE000202BE0012B2BD0D0
:100778001B4B5B6803F48001E269914226D103F0C8
:100788003F02216A8A4223D1616A47F6C0721A4041
:10079800B2EB811F1ED103F44031A26A5208013A1C
:1007A800B1EB024F18D103F07063E26AB3EB026F4A
:1007B80014D1002006E001207047012002E001204A
:1007C80000E0002002B070BD0120FBE70120F9E73E
:1007D8000120F7E70120F5E70120F3E70120F1E721
:1007E800003802400000474208B5264B9B6803F0DA
:1007F8000C03042B41D0082B41D1224B5A6802F03C
:100808003F025B6813F4800F12D01E4B5968C1F386
:1008180088111D480023A1FB0001FFF7B1FC194B0B
:100828005B68C3F3014301335B00B0FBF3F008BD21
:10083800144B5868C0F388104FEA401CBCEB000CFE
:100848006EEB0E0E4FEA8E1343EA9C634FEA8C114F
:10085800B1EB0C0163EB0E03DB0043EA5173C900F3
:1008680011EB000C43F10003990200234FEA8C209E
:1008780041EA9C51FFF784FCD1E70348D7E70348D6
:10088800D5E700BF0038024040787D010024F4001D
:10089800002800F09B8070B50D4604464F4B1B683E
:1008A80003F007038B4208D2CBB24C4A137013688B
:1008B80003F007038B4240F08B80236813F0020F8C
:1008C80017D013F0040F04D0454A936843F4E0535B
:1008D8009360236813F0080F04D0414A936843F4E7
:1008E800604393603E4A936823F0F003A1680B438A
:1008F8009360236813F0010F32D06368012B21D075
:100908009A1E012A25D9364A126812F0020F61D0C0
:1009180033498A6822F0030213438B6000F02CFAF3
:1009280006462F4B9B6803F00C036268B3EB820FFB
:1009380016D000F021FA801B41F288339842F0D992
:10094800032042E0264A126812F4003FE0D1012059
:100958003BE0234A126812F0007FD9D1012034E02D
:100968001E4B1B6803F00703AB4207D9EAB21B4BC7
:100978001A701B6803F00703AB422DD1236813F0EC
:10098800040F06D0164A936823F4E053E1680B433A
:100998009360236813F0080F07D0114A936823F473
:1009A8006043216943EAC1039360FFF71DFF0C4BC5
:1009B8009B68C3F303130B4AD35CD8400A4B1860F7
:1009C8000A4B186800F08CF9002070BD01207047B0
:1009D8000120FAE70120F8E70120F6E7003C024091
:1009E80000380240401C00080800002004000020D5
:1009F80000230F2B00F2E98070B582B065E08568AE
:100A08004FEA430E032404FA0EF425EA0405CC68E1
:100A180004FA0EF42C438460446824EA02044A6809
:100A2800C2F300129A40224342605CE0DC080834BA
:100A380050F8242003F00705AD004FF00F0E0EFA12
:100A480005FE22EA0E0E0A69AA4042EA0E0240F8A2
:100A580024205CE0072200E0002202FA0EF22A437A
:100A680002345A4D45F82420594A94686FEA0C021A
:100A780024EA0C054E6816F4801F01D04CEA0405E0
:100A8800534CA560E46802EA04054E6816F4001F9A
:100A980001D04CEA04054E4CE560646802EA04059E
:100AA8004E6816F4003F01D04CEA0405484C6560D6
:100AB800246822404D6815F4803F01D04CEA0402B6
:100AC800434C226001330F2B7DD801229A400C68D9
:100AD80004EA020C32EA0404F4D14C6804F003047A
:100AE800013C012C8BD94A6802F00302032A09D081
:100AF800C4685D000322AA4024EA02048A68AA4066
:100B08002243C2604A6802F00302022A8ED00468B7
:100B18004FEA430E032202FA0EF224EA02044A685C
:100B280002F0030202FA0EF2224302604A6812F44B
:100B3800403FC7D000220192264A546C44F48044B6
:100B48005464526C02F480420192019A9C08A51CDC
:100B58001E4A52F8255003F0030E4FEA8E0E0F225C
:100B680002FA0EF225EA02051B4A90423FF474AFDE
:100B780002F5806290421AD002F58062904218D045
:100B880002F58062904216D002F58062904214D03D
:100B980002F58062904212D002F58062904210D035
:100BA80002F5806290423FF455AF082255E70122D2
:100BB80053E7022251E703224FE704224DE70522BB
:100BC8004BE7062249E702B070BD70470038014084
:100BD800003C014000380240000002400AB1816137
:100BE8007047090481617047002807DB00F01F0285
:100BF800400901239340024A42F82030704700BF61
:100C080000E100E0002808DB0901C9B200F16040FA
:100C180000F5614080F80013704700F00F000901EB
:100C2800C9B2014B1954704714ED00E000B500F04B
:100C38000700C0F1070CBCF1040F28BF4FF0040CEB
:100C4800031D062B0FD9C31E4FF0FF3E0EFA0CF002
:100C580021EA000199400EFA03FE22EA0E0241EA57
:100C680002005DF804FB0023EEE70000074AD368A2
:100C780023F4E0631B041B0C000200F4E060034350
:100C880043F0BF6343F40033D360704700ED00E0E6
:100C980010B50446054BD868C0F30220FFF7C6FF1D
:100CA80001462046FFF7AEFF10BD00BF00ED00E093
:100CB80008B5FFF799FF08BD0138B0F1807F0BD266
:100CC8004FF0E0235861054AF02182F823100020F4
:100CD800986107221A6170470120704700ED00E013
:100CE80010B504460E4B1A784FF47A73B3FBF2F33F
:100CF8000C4A1068B0FBF3F0FFF7DEFF68B90F2C61
:100D080001D901200AE0002221464FF0FF30FFF709
:100D1800BFFF054B1C60002000E0012010BD00BF94
:100D280000000020080000200400002008B50B4B3C
:100D38001A6842F400721A601A6842F480621A60F3
:100D48001A6842F480721A600320FFF78FFF0F20A1
:100D5800FFF7C6FFFFF730FB002008BD003C02404C
:100D6800034A1168034B1B780B441360704700BF9C
:100D78002800002000000020014B1868704700BFC1
:100D880028000020034AD2F8883043F47003C2F8E0
:100D98008830704700ED00E000B583B00023009371
:100DA80001930F480F4A026040F2E71242608360E5
:100DB8004FF6FF72C260836100F0D6FA50B9002383
:100DC800009301936946064800F0E6FC28B903B091
:100DD8005DF804FBFFF734FAF1E7FFF731FAF6E7BD
:100DE8002C0000200010004000B583B00368154AAD
:100DF800934205D0144A93420FD003B05DF804FB28
:100E080000230093114B5A6C42F001025A645B6C48
:100E180003F001030093009BEFE7002101910B4BC6
:100E28001A6C42F010021A641B6C03F01003019351
:100E3800019B0A463620FFF72BFF3620FFF738FFC5
:100E4800DBE700BF0000014000100040003802400E
:100E580000B587B00023019302930393049305938D
:100E680002680F4B9A4202D007B05DF804FB0023DA
:100E780000930C4B1A6B42F001021A631B6B03F0D0
:100E880001030093009B4FF48073019302230293A4
:100E98000123059301A90448FFF7AAFDE4E700BF71
:100EA80000000140003802400000024010B596B032
:100EB8000024129413941494159410941194099482
:100EC8000A940B940C940D940E940F9420222146AE
:100ED80001A800F0FCFC2E482E4B03603C23436025
:100EE80084604FF6FF73C36004614461846100F05D
:100EF8003BFA00283AD14FF48053129312A92448A0
:100F080000F03DFB002834D1214800F059FA0028B0
:100F180032D100231093119310A91D4800F03CFC16
:100F280000282CD16023099340F6D6030A930022A7
:100F38000B920C920D920E920F9209A9144800F090
:100F4800A3FAF8B90023019302930393049305933A
:100F58004FF400520692089301A90D4800F062FC74
:100F680098B90B48FFF774FF16B010BDFFF768F982
:100F7800C1E7FFF765F9C7E7FFF762F9C9E7FFF7C8
:100F88005FF9CFE7FFF75CF9DCE7FFF759F9E8E726
:100F9800740000200000014030B4036A026A22F0A5
:100FA800010202624268846924F0730C0C6844EA06
:100FB8000C0423F0020C8B6843EA0C03114DA84281
:100FC80003D005F58065A84205D123F00803CD6854
:100FD8002B4323F004030B4DA84203D005F580658D
:100FE800A84207D122F440724D6945EA020C8A6989
:100FF80042EA0C02426084614A684263036230BC80
:10100800704700BF0000014030B4036A026A22F44E
:10101800807202624268C46924F0730C0C6844EA66
:101028000C0523F400738C6843EA0423114CA04296
:1010380003D004F58064A04206D123F40063CC6891
:1010480043EA042323F480630A4CA04203D004F546
:101058008064A04207D122F440524C6942EA04124B
:101068008C6942EA04124260C5614A68C26303623D
:1010780030BC70470000014030B4036A026A22F4B1
:10108800805202624468C26922F4E6420D6842EA6C
:10109800052223F400538D6843EA0533094DA8421D
:1010A80003D005F58065A84204D124F480444D6935
:1010B80044EA85144460C2614A680264036230BC31
:1010C800704700BF0000014010B4036A046A24F0AE
:1010D80001040462846924F0F00C4CEA021223F043
:1010E8000A030B43826103625DF8044B704710B436
:1010F800036A046A24F010040462846924F4704CBE
:101108004CEA023223F0A00343EA0113826103622E
:101118005DF8044B7047836823F070030B4343F07A
:101128000703836070477047704770477047704780
:10113800704770B504460368DE681D6915F0020F34
:1011480010D016F0020F0DD06FF002021A610123C1
:10115800037703689B6913F0030F5ED0FFF7E6FF80
:101168000023237715F0040F12D016F0040F0FD0C8
:1011780023686FF004021A610223237723689B69AE
:1011880013F4407F4FD02046FFF7D0FF002323778A
:1011980015F0080F12D016F0080F0FD023686FF063
:1011A80008021A61042323772368DB6913F0030F0D
:1011B80040D02046FFF7BAFF0023237715F0100F21
:1011C80012D016F0100F0FD023686FF010021A61BA
:1011D800082323772368DB6913F4407F31D0204646
:1011E800FFF7A4FF0023237715F0010F02D016F0B4
:1011F800010F2DD115F0800F02D016F0800F2FD1DE
:1012080015F0400F02D016F0400F31D115F0200F25
:1012180002D016F0200F33D170BDFFF786FF2046AD
:10122800FFF785FF9CE72046FFF77FFF2046FFF783
:101238007EFFABE72046FFF778FF2046FFF777FFF2
:10124800BAE72046FFF771FF2046FFF770FFC9E7AE
:1012580023686FF001021A612046FFF765FFC9E7AE
:1012680023686FF080021A61204600F005FBC7E78B
:1012780023686FF040021A612046FFF759FFC5E75F
:1012880023686FF020021A61204600F0F4FAC3E7E1
:101298000368344A904212D0B0F1804F0FD0A2F5C3
:1012A8007C4290420BD002F58062904207D002F552
:1012B8008062904203D002F57842904203D123F035
:1012C80070034A681343274A90422AD0B0F1804FEE
:1012D80027D0A2F57C42904223D002F5806290424A
:1012E8001FD002F5806290421BD002F578429042EE
:1012F80017D002F57052904213D002F580629042E6
:101308000FD002F5806290420BD0A2F5983290423D
:1013180007D002F58062904203D002F580629042C5
:1013280003D123F44073CA68134323F080034A6946
:10133800134303608B68C3620B688362094B98424E
:1013480003D003F58063984201D10B69036301233D
:101358004361036913F0010F03D0036923F001030C
:10136800036170470000014040B310B5044690F88F
:101378003D30F3B1022384F83D30214651F8040B87
:10138800FFF786FF012384F8463084F83E3084F85E
:101398003F3084F8403084F8413084F8423084F893
:1013A800433084F8443084F8453084F83D300020D8
:1013B80010BD80F83C30FFF717FDDBE701207047D0
:1013C80040B310B5044690F83D30F3B1022384F8D9
:1013D8003D30214651F8040BFFF75AFF012384F8EA
:1013E800463084F83E3084F83F3084F8403084F842
:1013F800413084F8423084F8433084F8443084F82B
:10140800453084F83D30002010BD80F83C30FFF7AF
:101418008AFEDBE70120704730B4036A026A22F0D3
:10142800100202624468826922F4E6420D6842EAC8
:10143800052223F020038D6843EA0513114DA842C5
:1014480003D005F58065A84206D123F08003CD6856
:1014580043EA051323F040030A4DA84203D005F5DB
:101468008065A84207D124F440644D6944EA8504A4
:101478008D6944EA8504446082614A688263036234
:1014880030BC70470000014038B590F83C30012B63
:1014980066D004460D46012380F83C300C2A5AD801
:1014A800DFE802F0075959591B5959593059595908
:1014B80044000068FFF770FD2268936943F0080351
:1014C80093612268936923F0040393612268936906
:1014D80029690B43936100203EE00068FFF79CFFF9
:1014E8002268936943F4006393612268936923F443
:1014F8008063936122689369296943EA01239361B0
:10150800002029E00068FFF77FFD2268D36943F0D7
:101518000803D3612268D36923F00403D3612268E6
:10152800D36929690B43D361002015E00068FFF7F0
:10153800A3FD2268D36943F40063D3612268D369A9
:1015480023F48063D3612268D369296943EA0123BC
:10155800D361002000E00120002384F83C3038BD2E
:101568000220FCE710B4846824F47F4C42EA03228A
:101578000A4342EA0C0282605DF8044B704790F817
:101588003C30012B78D010B50446012380F83C305C
:10159800022380F83D300268936823F47F4323F0E8
:1015A800770393600B68602B4CD023D8402B54D022
:1015B80011D8202B03D00AD80BB1102B05D119460E
:1015C8002068FFF7A8FD002028E0012026E0302B46
:1015D800F5D0012022E0502B0AD1CA68496800687A
:1015E800FFF772FD50212068FFF795FD002015E0F8
:1015F800012013E0B3F5805F3AD0B3F5005F14D053
:10160800702B37D1CB684A6889680068FFF7AAFF52
:101618002268936843F0770393600020012384F8DD
:101628003D30002384F83C3010BDCB684A68896897
:101638000068FFF797FF2268936843F4804393603C
:101648000020EBE7CA6849680068FFF750FD602191
:101658002068FFF760FD0020E0E7CA684968006875
:10166800FFF732FD40212068FFF755FD0020D5E740
:101678000020D3E70120D1E70220704701F01F01C5
:101688004FF0010C0CFA01FC036A23EA0C03036215
:10169800036A8A40134303627047000010B504468A
:1016A8000846002941D194F83E30013B18BF012378
:1016B800002B6BD100284ED1022384F83E30012242
:1016C80001462068FFF7DAFF2368324A934203D0C5
:1016D80002F58062934203D15A6C42F400425A6484
:1016E80023682C4A934246D0B3F1804F43D0A2F5E9
:1016F8007C4293423FD002F5806293423BD002F590
:101708008062934237D002F57842934233D002F593
:10171800705293422FD0A2F5943293422BD01A687C
:1017280042F001021A6000202FE0042907D008299E
:101738000BD094F84130013B18BF0123B8E794F867
:101748003F30013B18BF0123B2E794F84030013B1A
:1017580018BF0123ACE7042805D0082807D00223C6
:1017680084F84130ABE7022384F83F30A7E702232F
:1017780084F84030A3E79A6802F00702062A07D0E7
:101788001A6842F001021A60002010BD0120FCE72F
:101798000020FAE70000014090F83C20012A3DD0E3
:1017A80010B40346012280F83C20022280F83D2034
:1017B80002685068946820F0700C086840EA0C00D1
:1017C80050601A68164882421AD0B2F1804F17D07A
:1017D800A0F57C40824213D000F5806082420FD091
:1017E80000F5806082420BD000F57840824207D035
:1017F80000F57050824203D0A0F59430824204D1A3
:1018080024F08004496821439160012283F83D2037
:10181800002083F83C005DF8044B704702207047B5
:1018280000000140024690F83C30012B21D00123F2
:1018380080F83C30CB6823F440738868034323F472
:1018480080634868034323F400630868034323F470
:1018580080530869034323F400534869034323F47E
:101868008043C9690B4311684B64002082F83C002F
:10187800704702207047704770470000DFF834D087
:10188800FFF780FA0C480D490D4A002302E0D458AE
:10189800C4500433C4188C42F9D30A4A0A4C0023B2
:1018A80001E013600432A242FBD300F019F8FEF7FE
:1018B8000DFD704700000220000000200C000020F1
:1018C800601C00080C000020BC000020FEE7024459
:1018D8000346934200D1704703F8011BF9E7000063
:1018E80070B50D4B0D4D5B1B9C100026A64209D10F
:1018F80000F096F90A4D0B4B5B1B9C100026A64284
:1019080005D170BD55F8043B98470136EEE755F808
:10191800043B98470136F2E7581C0008581C000899
:10192800581C00085C1C00082DE9F047089D0F466C
:1019380004468C46002B48D18A42164661D9B2FA31
:1019480082F34BB1C3F1200201FA03FC20FA02F240
:101958009E4042EA0C0C9C404FEA164EB7B2BCFBC4
:10196800FEF1220C0EFB11CC42EA0C4201FB07F0FF
:10197800904209D9B21801F1FF3C80F0EE80904204
:1019880040F2EB8002393244121AA4B2B2FBFEF0E4
:101998000EFB102244EA024400FB07F7A74209D9CC
:1019A800341900F1FF3280F0DA80A74240F2D78084
:1019B8003444023840EA0140E41B00211DB1DC40F8
:1019C8000023C5E90043BDE8F0878B4206D90DB175
:1019D800C5E9000100210846BDE8F087B3FA83F1A4
:1019E800002948D1BB4202D3824200F20781841AFF
:1019F80067EB030201209446002DE4D0C5E9004CB2
:101A0800E1E7002A00F09280B2FA82F3002B40F05E
:101A1800A8808A1A4FEA164E1FFA86FC0121200C6C
:101A2800B2FBFEF70EFB172240EA02420CFB07F05E
:101A3800904207D9B21807F1FF3802D2904200F25B
:101A4800E2804746121AA4B2B2FBFEF00EFB102247
:101A580044EA02440CFB00FCA44507D9341900F100
:101A6800FF3202D2A44500F2CB801046A4EB0C044E
:101A780040EA0740A2E7C1F120068B4022FA06FCA3
:101A88004CEA030C07FA01F420FA06F3F7404FEA90
:101A98001C49234300FA01F81FFA8CFEB7FBF9F042
:101AA8001C0C09FB107744EA074400FB0EF7A74219
:101AB80002FA01F20AD91CEB040400F1FF3A80F0A3
:101AC8009B80A74240F2988002386444E41B9FB28E
:101AD800B4FBF9F309FB134447EA044403FB0EFE85
:101AE800A64509D91CEB040403F1FF3780F0828076
:101AF800A6457FD9023B644443EA0040A4EB0E04A8
:101B0800A0FB02E7BC427346B94663D360D05DB11F
:101B1800B8EB030264EB090404FA06F622FA01F3AF
:101B28001E43CC40C5E9006400214CE76208480820
:101B380042EAC1710B0C43EA00438AB242EA03420B
:101B4800B3FBF6F1E407B4463746B6461F23B0FBAD
:101B5800F6F0D21B41EA004161E7614614E71046FE
:101B680028E7C3F1200120FA01F29E4027FA01F18B
:101B78009F403A434FEA164E1FFA86FCB1FBFEF728
:101B88000EFB1710110C41EA004107FB0CF88845C1
:101B980004FA03F43AD9711807F1FF3001D28845E5
:101BA8001FD8A1EB0801B1FBFEF808FB0CF70EFBF0
:101BB800181192B242EA0142BA422FD2B21808F181
:101BC800FF31C6D2BA42C4D2A8F102013244C0E7FA
:101BD800F0459CD2BEEB020367EB0C070138B9460F
:101BE80095E7A6EB08084144B81EB1FBFEF808FBD0
:101BF8000CF7DCE73B467FE7504667E70846FBE61D
:101C08003444023832E7023F32441BE7A1EB0801B3
:101C18003846B1FBFEF808FB0CF7C8E7414698E7E1
:101C2800F8B500BFF8BC08BC9E467047F8B500BFC1
:081C3800F8BC08BC9E46704791
:101C4000000000000000000001020304060708096C
:081C5000E0FCFF7F0100000031
:041C58002502000859
:041C5C00FD0100087E
:0C1C600001000000100000000024F4004F
:040000050800188552
:00000001FF
