:020000040800F2
:1000000000000220DD15000895070008970700088A
:10001000990700089B0700089D07000800000000E2
:100020000000000000000000000000009F07000822
:10003000A107000800000000A3070008A5070008AA
:100040002D1600082D1600082D1600082D16000884
:100050002D1600082D1600082D1600082D16000874
:100060002D1600082D1600082D1600082D16000864
:100070002D1600082D1600082D1600082D16000854
:100080002D1600082D1600082D1600082D16000844
:100090002D1600082D1600082D1600082D16000834
:1000A0002D1600082D1600082D1600082D16000824
:1000B0002D1600082D1600082D1600082D16000814
:1000C0002D1600082D1600082D1600082D16000804
:1000D0002D1600082D1600082D1600082D160008F4
:1000E0002D1600082D1600082D1600082D160008E4
:1000F0002D1600082D1600082D1600082D160008D4
:100100002D1600082D1600082D1600082D160008C3
:100110002D1600082D160008AD0700082D16000842
:100120002D1600082D1600082D1600082D160008A3
:100130002D1600082D1600082D1600082D16000893
:100140002D1600082D1600082D1600082D16000883
:100150002D1600082D1600082D1600082D16000873
:100160002D1600082D1600082D1600082D16000863
:100170002D1600082D1600082D160008000000009E
:080180002D1600082D160008E1
:100188000348044B834202D0034B03B1184770471E
:100198000C0000200C000020000000000548064B61
:1001A8001B1AD90F01EBA301491002D0034B03B16D
:1001B800184770470C0000200C00002000000000C9
:1001C80010B5064C237843B9FFF7DAFF044B13B197
:1001D8000448AFF300800123237010BD0C000020F9
:1001E800000000003016000808B5044B1BB1044994
:1001F8000448AFF30080BDE80840CFE700000000E6
:10020800100000203016000870B50F4B0F4DAB42A0
:10021800A3EB050607D0B610002455F8043B0134BB
:100228009847A642F9D801F0FFF9094D094B5E1B22
:10023800AB424FEAA60606D0002455F8043B013429
:100248009847A642F9D870BD6016000860160008E5
:100258006016000864160008830730B547D0541E9E
:10026800002A3ED0CAB2034601E0013C39D303F864
:10027800012B9D07F9D1032C2CD9CDB205EB05250F
:100288000F2C05EB054535D9A4F1100222F00F0C0F
:1002980003F1100EE6444FEA121C1A46C2E9005553
:1002A800C2E9025510327245F8D10CF1010214F07E
:1002B8000C0F03EB021204F00F0C13D0ACF1040383
:1002C80023F003030433134442F8045B9342FBD145
:1002D8000CF003042CB1C9B21C4403F8011BA3425F
:1002E800FBD130BD64461346002CF4D1F9E7034630
:1002F8001446C0E71A46A446E0E700BF53B94AB916
:10030800002908BF00281CBF4FF0FF314FF0FF3015
:1003180000F06AB9ADF1080C6DE904CE00F006F8FA
:10032800DDF804E0DDE9022304B070472DE9F04769
:10033800089D0E4604460F46002B4AD194468C452C
:10034800B2FA82F260D942B1C2F12003974020FA92
:1003580003F30CFA02FC1F4394404FEA1C4E1FFAA9
:100368008CF6B7FBFEF1230C0EFB117743EA07432B
:1003780001FB06F098420AD91CEB030301F1FF3791
:1003880080F01581984240F21281023963441B1AA9
:10039800A4B2B3FBFEF00EFB103344EA034400FBA7
:1003A80006F6A6420AD91CEB040400F1FF3380F0DC
:1003B8000081A64240F2FD806444023840EA0140D0
:1003C800A41B00211DB1D4400023C5E90043BDE8AA
:1003D800F0878B4205D90DB1C5E900010021084617
:1003E800F5E7B3FA83F1002946D1B34202D382423A
:1003F80000F2F580841A66EB030201201746002DEF
:10040800E5D0C5E90047E2E7002A40F09380A1EB78
:100418000C034FEA1C471FFA8CFE0121B3FBF7F6C9
:1004280007FB1630230C43EA00430EFB06F0984204
:1004380008D91CEB030306F1FF3802D2984200F2F8
:10044800D08046461B1AA4B2B3FBF7F007FB103363
:1004580044EA03440EFB00FEA64508D91CEB04043D
:1004680000F1FF3302D2A64500F2B6801846A4EB8D
:100478000E0440EA0640A5E7C1F120078B4022FAA6
:1004880007FC4CEA030C06FA01FE20FA07F426FAE8
:1004980007F344EA0E0400FA01F84FEA1C404FEA59
:1004A8001449B3FBF0FE1FFA8CF600FB1E3349EA31
:1004B80003430EFB06F9994502FA01F20BD91CEB2E
:1004C80003030EF1FF3A80F08580994540F282805F
:1004D800AEF1020E6344A3EB0909A4B2B9FBF0F331
:1004E80000FB139944EA094403FB06F6A64208D91F
:1004F8001CEB040403F1FF3068D2A64266D9023B24
:10050800644443EA0E40A41BA0FB02E6B4427346CF
:10051800B14652D34FD05DB1B8EB030264EB090486
:1005280004FA07F722FA01F31F43CC40C5E9007427
:1005380000214CE7C2F1200120FA01F30CFA02FC79
:1005480026FA01F1964033434FEA1C471FFA8CFE06
:10055800B1FBF7F007FB1016190C41EA064100FB46
:100568000EF68E4204FA02F408D91CEB010100F1E0
:10057800FF382DD28E422BD902386144891B9BB299
:10058800B1FBF7F607FB161143EA014306FB0EF130
:10059800994208D91CEB030306F1FF3814D299429B
:1005A80012D9023E63445B1A46EA004136E73946EF
:1005B800EDE6184602E7F045ADD2BEEB020366EB66
:1005C8000C060138B146A6E74646ECE7034698E72D
:1005D8004046D3E7D6467EE76444023847E70846F4
:1005E8000DE7023E63442DE7704700BF38B51A4C4B
:1005F80022780132534202F0030203F0030358BF8A
:100608005A42D2B22270154DB2FA82F252094FF410
:100618008051284600F0E0FC2278012A14BF00220D
:1006280001224FF40051284600F0D6FC2278022A15
:1006380014BF002201224FF48041284600F0CCFC70
:100648002278032A14BF002201224FF400412846D1
:1006580000F0C2FC38BD00BF28000020000C02409A
:1006680072B6FEE700B595B03022002108A8FFF762
:10067800F3FD0023039304930593069307930193D3
:10068800184A116C41F080511164126C02F08052CA
:100698000192019A0293144A116841F48041116051
:1006A800126802F480420292029A022208920122FF
:1006B8000B9210220C920E9308A800F097F868B9D4
:1006C8000F2303930021049105910691079103A834
:1006D80000F0DCFA20B915B05DF804FBFFF7C0FFA5
:1006E800FFF7BEFF003802400070004008B500F078
:1006F8001BFDFFF7B7FF00F009F800F04BFD0248BB
:1007080000F090FDFEE700BF2C00002070B588B017
:100718000024039404940594069407940194184BB8
:100728001A6B42F001021A631A6B02F0010201927D
:10073800019A02941A6B42F008021A631B6B03F0C9
:1007480008030293029B0F4D22464FF4704128463E
:1007580000F042FC0126039604940223059303A9A2
:10076800094800F043FB4FF4704303930496059443
:10077800069403A9284600F039FB08B070BD00BFF5
:1007880000380240000C024000000240FEE7FEE78D
:10079800FEE7FEE7FEE770477047704708B500F0D0
:1007A800DDFC08BD08B5024800F084FD08BD00BFA7
:1007B8007800002082B0002100910B4B5A6C42F463
:1007C80080425A645A6C02F480420092009A019165
:1007D8001A6C42F080521A641B6C03F08053019328
:1007E800019B02B0704700BF00380240002800F0AB
:1007F800E08170B582B00446036813F0010F3BD066
:100808009F4B9B6803F00C03042B2CD09C4B9B68DC
:1008180003F00C03082B21D06368B3F5803F4FD059
:10082800B3F5A02F52D0964B1A6822F480321A6082
:100838001A6822F480221A606368002B50D000F0F6
:1008480099FC05468E4B1B6813F4003F14D100F049
:1008580091FC401B6428F5D90320B1E1884B5B6803
:1008680013F4800FD8D0864B1B6813F4003F03D0D5
:100878006368002B00F09F81236813F0020F54D0A7
:100888007F4B9B6813F00C0F3ED07D4B9B6803F0A9
:100898000C03082B33D0E368002B68D0794B012276
:1008A8001A6000F067FC0546754B1B6813F0020FD1
:1008B80054D100F05FFC401B0228F5D903207FE1EA
:1008C8006F4A136843F480331360B5E76C4B1A68BA
:1008D80042F480221A601A6842F480321A60ABE748
:1008E80000F048FC0546664B1B6813F4003FC3D074
:1008F80000F040FC401B6428F5D9032060E1604B00
:100908005B6813F4800FC6D15D4B1B6813F0020FB0
:1009180003D0E368012B40F05081594A136823F053
:10092800F803216943EAC1031360236813F0080F31
:1009380042D063696BB3534B0122C3F8802E00F099
:1009480019FC05464E4B5B6F13F0020F34D100F0D3
:1009580011FC401B0228F5D9032031E1484A1368ED
:1009680023F0F803216943EAC1031360DDE7454B2F
:1009780000221A6000F0FEFB0546414B1B6813F08D
:10098800020FD2D000F0F6FB401B0228F5D9032055
:1009980016E13C4B0022C3F8802E00F0EBFB054625
:1009A800374B5B6F13F0020F06D000F0E3FB401BE0
:1009B8000228F5D9032003E1236813F0040F77D048
:1009C8002F4B1B6C13F0805F33D1002301932C4B0A
:1009D8001A6C42F080521A641B6C03F08053019326
:1009E800019B0125284B1B6813F4807F23D0A36843
:1009F800012B34D0052B38D0214B1A6F22F001027D
:100A08001A671A6F22F004021A67A368002B3DD0F8
:100A180000F0B0FB06461A4B1B6F13F0020F46D1CD
:100A280000F0A8FB801B41F288339842F3D90320D9
:100A3800C6E00025D6E7144A136843F480731360B0
:100A480000F098FB0646104B1B6813F4807FCED14C
:100A580000F090FB801B0228F5D90320B0E0084A7B
:100A6800136F43F001031367CFE7054B1A6F42F08A
:100A780004021A671A6F42F001021A67C5E700BF3D
:100A880000380240000047420070004000F072FB4E
:100A98000646524B1B6F13F0020F08D000F06AFB9A
:100AA800801B41F288339842F3D9032088E0EDB9DE
:100AB800A369002B00F08380484A926802F00C0278
:100AC800082A51D0022B17D0454B00221A6600F095
:100AD80051FB0446414B1B6813F0007F42D000F0E5
:100AE80049FB001B0228F5D9032069E03B4A136C37
:100AF80023F080531364DBE7394B00221A6600F0B9
:100B080039FB0546354B1B6813F0007F06D000F013
:100B180031FB401B0228F5D9032051E0E369226A22
:100B28001343626A43EA8213A26A5208013A43EA0B
:100B38000243E26A43EA0263284A5360284B0122CF
:100B48001A6600F017FB0446244B1B6813F0007F5D
:100B580006D100F00FFB001B0228F5D903202FE077
:100B680000202DE000202BE0012B2BD01B4B5B68D5
:100B780003F48001E269914226D103F03F02216A21
:100B88008A4223D1616A47F6C0721A40B2EB811FCC
:100B98001ED103F44031A26A5208013AB1EB024F68
:100BA80018D103F07063E26AB3EB026F14D100202E
:100BB80006E001207047012002E0012000E000204B
:100BC80002B070BD0120FBE70120F9E70120F7E73B
:100BD8000120F5E70120F3E70120F1E700380240A2
:100BE8000000474208B5264B9B6803F00C03042B12
:100BF80041D0082B41D1224B5A6802F03F025B6872
:100C080013F4800F12D01E4B5968C1F388111D4888
:100C18000023A1FB0001FFF771FB194B5B68C3F3CD
:100C2800014301335B00B0FBF3F008BD144B586877
:100C3800C0F388104FEA401CBCEB000C6EEB0E0EA4
:100C48004FEA8E1343EA9C634FEA8C11B1EB0C0117
:100C580063EB0E03DB0043EA5173C90011EB000C90
:100C680043F10003990200234FEA8C2041EA9C518A
:100C7800FFF744FBD1E70348D7E70348D5E700BFB0
:100C88000038024040787D010024F400002800F07C
:100C98009B8070B50D4604464F4B1B6803F0070355
:100CA8008B4208D2CBB24C4A1370136803F0070387
:100CB8008B4240F08B80236813F0020F17D013F09B
:100CC800040F04D0454A936843F4E05393602368C3
:100CD80013F0080F04D0414A936843F460439360CB
:100CE8003E4A936823F0F003A1680B43936023689E
:100CF80013F0010F32D06368012B21D09A1E012A0C
:100D080025D9364A126812F0020F61D033498A6831
:100D180022F0030213438B6000F02CFA06462F4B97
:100D28009B6803F00C036268B3EB820F16D000F0E7
:100D380021FA801B41F288339842F0D9032042E01F
:100D4800264A126812F4003FE0D101203BE0234A12
:100D5800126812F0007FD9D1012034E01E4B1B68C5
:100D680003F00703AB4207D9EAB21B4B1A701B68A2
:100D780003F00703AB422DD1236813F0040F06D00C
:100D8800164A936823F4E053E1680B4393602368A1
:100D980013F0080F07D0114A936823F460432169C0
:100DA80043EAC1039360FFF71DFF0C4B9B68C3F335
:100DB80003130B4AD35CD8400A4B18600A4B1868D7
:100DC80000F08CF9002070BD012070470120FAE77F
:100DD8000120F8E70120F6E7003C02400038024015
:100DE80048160008080000200400002000230F2BEC
:100DF80000F2E98070B582B065E085684FEA430E7D
:100E0800032404FA0EF425EA0405CC6804FA0EF467
:100E18002C438460446824EA02044A68C2F300123E
:100E28009A40224342605CE0DC08083450F82420F1
:100E380003F00705AD004FF00F0E0EFA05FE22EA8B
:100E48000E0E0A69AA4042EA0E0240F824205CE02D
:100E5800072200E0002202FA0EF22A4302345A4D19
:100E680045F82420594A94686FEA0C0224EA0C05D4
:100E78004E6816F4801F01D04CEA0405534CA56057
:100E8800E46802EA04054E6816F4001F01D04CEA33
:100E980004054E4CE560646802EA04054E6816F4E1
:100EA800003F01D04CEA0405484C656024682240A4
:100EB8004D6815F4803F01D04CEA0402434C22608F
:100EC80001330F2B7DD801229A400C6804EA020CEA
:100ED80032EA0404F4D14C6804F00304013C012C08
:100EE8008BD94A6802F00302032A09D0C4685D005E
:100EF8000322AA4024EA02048A68AA402243C26064
:100F08004A6802F00302022A8ED004684FEA430EB0
:100F1800032202FA0EF224EA02044A6802F00302EB
:100F280002FA0EF2224302604A6812F4403FC7D028
:100F380000220192264A546C44F480445464526C52
:100F480002F480420192019A9C08A51C1E4A52F89C
:100F5800255003F0030E4FEA8E0E0F2202FA0EF20E
:100F680025EA02051B4A90423FF474AF02F58062FD
:100F780090421AD002F58062904218D002F5806241
:100F8800904216D002F58062904214D002F5806239
:100F9800904212D002F58062904210D002F5806231
:100FA80090423FF455AF082255E7012253E7022249
:100FB80051E703224FE704224DE705224BE70622BB
:100FC80049E702B070BD704700380140003C01405D
:100FD80000380240000002400AB1816170470904EC
:100FE80081617047002807DB00F01F0240090123D8
:100FF8009340024A42F82030704700BF00E100E009
:10100800002808DB0901C9B200F1604000F5614021
:1010180080F80013704700F00F000901C9B2014BB6
:101028001954704714ED00E000B500F00700C0F156
:10103800070CBCF1040F28BF4FF0040C031D062B4E
:101048000FD9C31E4FF0FF3E0EFA0CF021EA000143
:1010580099400EFA03FE22EA0E0241EA02005DF808
:1010680004FB0023EEE70000074AD36823F4E0639B
:101078001B041B0C000200F4E060034343F0BF6351
:1010880043F40033D360704700ED00E010B5044628
:10109800054BD868C0F30220FFF7C6FF014620467B
:1010A800FFF7AEFF10BD00BF00ED00E008B5FFF789
:1010B80099FF08BD0138B0F1807F0BD24FF0E023D3
:1010C8005861054AF02182F8231000209861072210
:1010D8001A6170470120704700ED00E010B5044622
:1010E8000E4B1A784FF47A73B3FBF2F30C4A10687C
:1010F800B0FBF3F0FFF7DEFF68B90F2C01D9012030
:101108000AE0002221464FF0FF30FFF7BFFF054BF2
:101118001C60002000E0012010BD00BF000000207E
:10112800080000200400002008B50B4B1A6842F4A0
:1011380000721A601A6842F480621A601A6842F4EF
:1011480080721A600320FFF78FFF0F20FFF7C6FF9A
:10115800FFF730FB002008BD003C0240034A11683D
:10116800034B1B780B441360704700BF74000020CA
:1011780000000020014B1868704700BF7400002071
:10118800034AD2F8883043F47003C2F888307047B5
:1011980000ED00E000B583B00023009301930F48F1
:1011A8000F4A026040F2E712426083604FF6FF7216
:1011B800C260836100F09AF950B90023009301934B
:1011C8006946064800F0BEF928B903B05DF804FB8B
:1011D800FFF746FAF1E7FFF743FAF6E77800002051
:1011E8000010004002680E4B9A4200D0704700B5CC
:1011F80083B00021019103F50A331A6C42F0100202
:101208001A641B6C03F010030193019B0A463620F5
:10121800FFF73CFF3620FFF749FF03B05DF804FBFA
:101228000010004090F83D30DBB2012B37D102238B
:1012380080F83D300268D36843F00103D360036847
:10124800194A934220D0B3F1804F1DD0A2F57C42B9
:10125800934219D002F58062934215D002F580625C
:10126800934211D002F5784293420DD002F57052A4
:10127800934209D0A2F59432934205D01A6842F0FD
:1012880001021A60002070479A6802F00702062AD5
:1012980007D01A6842F001021A6000207047012046
:1012A80070470020704700BF00000140704770473A
:1012B8007047704770B504460368DE681D6915F00D
:1012C800020F10D016F0020F0DD06FF002021A6153
:1012D8000123037703689B6913F0030F5ED0FFF7C0
:1012E800E6FF0023237715F0040F12D016F0040F41
:1012F8000FD023686FF004021A6102232377236852
:101308009B6913F4407F4FD02046FFF7D0FF00239E
:10131800237715F0080F12D016F0080F0FD02368A6
:101328006FF008021A61042323772368DB6913F03E
:10133800030F40D02046FFF7BAFF0023237715F0AC
:10134800100F12D016F0100F0FD023686FF0100294
:101358001A61082323772368DB6913F4407F31D0AF
:101368002046FFF7A4FF0023237715F0010F02D0D2
:1013780016F0010F2DD115F0800F02D016F0800F56
:101388002FD115F0400F02D016F0400F31D115F0D3
:10139800200F02D016F0200F33D170BDFFF786FF63
:1013A8002046FFF785FF9CE72046FFF77FFF204692
:1013B800FFF77EFFABE72046FFF778FF2046FFF7F1
:1013C80077FFBAE72046FFF771FF2046FFF770FF67
:1013D800C9E723686FF001021A612046FFF706F992
:1013E800C9E723686FF080021A61204600F0F1F81F
:1013F800C7E723686FF040021A612046FFF759FFDC
:10140800C5E723686FF020021A61204600F0E0F873
:10141800C3E700000368344A904212D0B0F1804F0D
:101428000FD0A2F57C4290420BD002F58062904228
:1014380007D002F58062904203D002F578429042CC
:1014480003D123F070034A681343274A90422AD0F5
:10145800B0F1804F27D0A2F57C42904223D002F50C
:10146800806290421FD002F5806290421BD002F544
:101478007842904217D002F57052904213D002F58C
:10148800806290420FD002F5806290420BD0A2F5A4
:101498009832904207D002F58062904203D002F55C
:1014A8008062904203D123F44073CA68134323F047
:1014B80080034A69134303608B68C3620B688362C5
:1014C800094B984203D003F58063984201D10B6918
:1014D800036301234361036913F0010F03D0036918
:1014E80023F00103036170470000014040B310B5C9
:1014F800044690F83D30F3B1022384F83D3021468C
:1015080051F8040BFFF786FF012384F8463084F86E
:101518003E3084F83F3084F8403084F8413084F815
:10152800423084F8433084F8443084F8453084F8F5
:101538003D30002010BD80F83C30FFF753FEDBE75C
:101548000120704790F83C20012A3DD010B4034692
:10155800012280F83C20022280F83D200268506871
:10156800946820F0700C086840EA0C0050601A6813
:10157800164882421AD0B2F1804F17D0A0F57C40AD
:10158800824213D000F5806082420FD000F580605F
:1015980082420BD000F57840824207D000F57050A7
:1015A800824203D0A0F59430824204D124F0800412
:1015B800496821439160012283F83D20002083F887
:1015C8003C005DF8044B7047022070470000014062
:1015D80070477047DFF834D0FFF7D2FD0C480D494B
:1015E8000D4A002302E0D458C4500433C4188C4276
:1015F800F9D30A4A0A4C002301E013600432A242DC
:10160800FBD3FEF701FEFFF771F8704700000220D8
:10161800000000200C000020681600080C000020C4
:10162800C0000020FEE70000F8B500BFF8BC08BC09
:101638009E467047F8B500BFF8BC08BC9E46704788
:10164800000000000000000001020304060708096A
:08165800DCECFF7F0100000043
:04166000F10100088C
:04166400C9010008B0
:0C16680001000000100000000024F4004D
:04000005080015DDFD
:00000001FF
